ARM GAS  C:\Users\ADEFIR~1\AppData\Local\Temp\ccDhNnbL.s 			page 1


   1              		.syntax unified
   2              		.cpu cortex-m0plus
   3              		.fpu softvfp
   4              		.eabi_attribute 20, 1
   5              		.eabi_attribute 21, 1
   6              		.eabi_attribute 23, 3
   7              		.eabi_attribute 24, 1
   8              		.eabi_attribute 25, 1
   9              		.eabi_attribute 26, 1
  10              		.eabi_attribute 30, 1
  11              		.eabi_attribute 34, 0
  12              		.eabi_attribute 18, 4
  13              		.thumb
  14              		.syntax unified
  15              		.file	"CyFlash.c"
  16              		.text
  17              	.Ltext0:
  18              		.cfi_sections	.debug_frame
  19              		.section	.text.CySysFlashClockBackup,"ax",%progbits
  20              		.align	2
  21              		.code	16
  22              		.thumb_func
  23              		.type	CySysFlashClockBackup, %function
  24              	CySysFlashClockBackup:
  25              	.LFB4:
  26              		.file 1 "Generated_Source\\PSoC4\\CyFlash.c"
   1:Generated_Source\PSoC4/CyFlash.c **** /***************************************************************************//**
   2:Generated_Source\PSoC4/CyFlash.c **** * \file CyFlash.c
   3:Generated_Source\PSoC4/CyFlash.c **** * \version 5.80
   4:Generated_Source\PSoC4/CyFlash.c **** *
   5:Generated_Source\PSoC4/CyFlash.c **** * \brief Provides an API for the FLASH.
   6:Generated_Source\PSoC4/CyFlash.c **** *
   7:Generated_Source\PSoC4/CyFlash.c **** * \note This code is endian agnostic.
   8:Generated_Source\PSoC4/CyFlash.c **** *
   9:Generated_Source\PSoC4/CyFlash.c **** * \note Documentation of the API's in this file is located in the System
  10:Generated_Source\PSoC4/CyFlash.c **** * Reference Guide provided with PSoC Creator.
  11:Generated_Source\PSoC4/CyFlash.c **** *
  12:Generated_Source\PSoC4/CyFlash.c **** ********************************************************************************
  13:Generated_Source\PSoC4/CyFlash.c **** * \copyright
  14:Generated_Source\PSoC4/CyFlash.c **** * Copyright 2010-2018, Cypress Semiconductor Corporation.  All rights reserved.
  15:Generated_Source\PSoC4/CyFlash.c **** * You may use this file only in accordance with the license, terms, conditions,
  16:Generated_Source\PSoC4/CyFlash.c **** * disclaimers, and limitations in the end user license agreement accompanying
  17:Generated_Source\PSoC4/CyFlash.c **** * the software package with which this file was provided.
  18:Generated_Source\PSoC4/CyFlash.c **** *******************************************************************************/
  19:Generated_Source\PSoC4/CyFlash.c **** 
  20:Generated_Source\PSoC4/CyFlash.c **** #include "CyFlash.h"
  21:Generated_Source\PSoC4/CyFlash.c **** 
  22:Generated_Source\PSoC4/CyFlash.c **** 
  23:Generated_Source\PSoC4/CyFlash.c **** /*******************************************************************************
  24:Generated_Source\PSoC4/CyFlash.c **** * Cypress identified a defect with the Flash write functionality of the
  25:Generated_Source\PSoC4/CyFlash.c **** * PSoC 4000, PSoC 4000U, PSoC 4100, and PSoC 4200 devices. The 
  26:Generated_Source\PSoC4/CyFlash.c **** * CySysFlashWriteRow() function now checks the data to be written and, if 
  27:Generated_Source\PSoC4/CyFlash.c **** * necessary, modifies it to have a non-zero checksum. After writing to Flash, 
  28:Generated_Source\PSoC4/CyFlash.c **** * the modified data is replaced (Flash program) with 
  29:Generated_Source\PSoC4/CyFlash.c **** * the correct (original) data.
  30:Generated_Source\PSoC4/CyFlash.c **** *******************************************************************************/
  31:Generated_Source\PSoC4/CyFlash.c **** #define CY_FLASH_CHECKSUM_WORKAROUND    (CY_PSOC4_4000 || CY_PSOC4_4100 || CY_PSOC4_4200 || CY_PSOC
ARM GAS  C:\Users\ADEFIR~1\AppData\Local\Temp\ccDhNnbL.s 			page 2


  32:Generated_Source\PSoC4/CyFlash.c **** 
  33:Generated_Source\PSoC4/CyFlash.c **** #if (CY_IP_FM || ((!CY_PSOC4_4000) && CY_IP_SPCIF_SYNCHRONOUS) || (!CY_IP_FM) && CY_PSOC4_4000)
  34:Generated_Source\PSoC4/CyFlash.c ****     static CY_SYS_FLASH_CLOCK_BACKUP_STRUCT cySysFlashBackup;
  35:Generated_Source\PSoC4/CyFlash.c **** #endif /* (CY_IP_FM || ((!CY_PSOC4_4000) && CY_IP_SPCIF_SYNCHRONOUS) || (!CY_IP_FM) && CY_PSOC4_400
  36:Generated_Source\PSoC4/CyFlash.c **** 
  37:Generated_Source\PSoC4/CyFlash.c **** static cystatus CySysFlashClockBackup(void);
  38:Generated_Source\PSoC4/CyFlash.c **** static cystatus CySysFlashClockRestore(void);
  39:Generated_Source\PSoC4/CyFlash.c **** #if(CY_IP_SPCIF_SYNCHRONOUS)
  40:Generated_Source\PSoC4/CyFlash.c ****     static cystatus CySysFlashClockConfig(void);
  41:Generated_Source\PSoC4/CyFlash.c **** #endif  /* (CY_IP_SPCIF_SYNCHRONOUS) */
  42:Generated_Source\PSoC4/CyFlash.c **** 
  43:Generated_Source\PSoC4/CyFlash.c **** 
  44:Generated_Source\PSoC4/CyFlash.c **** /*******************************************************************************
  45:Generated_Source\PSoC4/CyFlash.c **** * Function Name: CySysFlashWriteRow
  46:Generated_Source\PSoC4/CyFlash.c **** ****************************************************************************//**
  47:Generated_Source\PSoC4/CyFlash.c **** *
  48:Generated_Source\PSoC4/CyFlash.c **** * Erases a row of Flash and programs it with the new data.
  49:Generated_Source\PSoC4/CyFlash.c **** *
  50:Generated_Source\PSoC4/CyFlash.c **** * The IMO must be enabled before calling this function. The operation of the
  51:Generated_Source\PSoC4/CyFlash.c **** * flash writing hardware is dependent on the IMO.
  52:Generated_Source\PSoC4/CyFlash.c **** *
  53:Generated_Source\PSoC4/CyFlash.c **** * For PSoC 4000, PSoC 4100 BLE and PSoC 4200 BLE devices (PSoC 4100 BLE and
  54:Generated_Source\PSoC4/CyFlash.c **** * PSoC 4200 BLE devices with 256K of Flash memory are not affected), this API
  55:Generated_Source\PSoC4/CyFlash.c **** * will automatically modify the clock settings for the device. Writing to
  56:Generated_Source\PSoC4/CyFlash.c **** * flash requires that changes be made to the IMO and HFCLK settings. The
  57:Generated_Source\PSoC4/CyFlash.c **** * configuration is restored before returning. This will impact the operation
  58:Generated_Source\PSoC4/CyFlash.c **** * of most of the hardware in the device.
  59:Generated_Source\PSoC4/CyFlash.c **** *
  60:Generated_Source\PSoC4/CyFlash.c **** * For PSoC 4000 devices this API will automatically modify the clock settings
  61:Generated_Source\PSoC4/CyFlash.c **** * for the device. Writing to flash requires that changes be made to the IMO
  62:Generated_Source\PSoC4/CyFlash.c **** * and HFCLK settings. The configuration is restored before returning. HFCLK
  63:Generated_Source\PSoC4/CyFlash.c **** * will have several frequency changes during the operation of this API between
  64:Generated_Source\PSoC4/CyFlash.c **** * a minimum frequency of the current IMO frequency divided by 8 and a maximum
  65:Generated_Source\PSoC4/CyFlash.c **** * frequency of 12 MHz. This will impact the operation of most of the hardware
  66:Generated_Source\PSoC4/CyFlash.c **** * in the device.
  67:Generated_Source\PSoC4/CyFlash.c **** *
  68:Generated_Source\PSoC4/CyFlash.c **** * \param rowNum The flash row number. The number of the flash rows is defined by
  69:Generated_Source\PSoC4/CyFlash.c **** * the \ref CY_FLASH_NUMBER_ROWS macro for the selected device. Refer to the
  70:Generated_Source\PSoC4/CyFlash.c **** * device datasheet for the details.
  71:Generated_Source\PSoC4/CyFlash.c **** * \note The target flash array is calculated based on the specified flash row.
  72:Generated_Source\PSoC4/CyFlash.c **** *
  73:Generated_Source\PSoC4/CyFlash.c **** * \param rowData Array of bytes to write. The size of the array must be equal to
  74:Generated_Source\PSoC4/CyFlash.c **** * the flash row size. The flash row size for the selected device is defined by
  75:Generated_Source\PSoC4/CyFlash.c **** * the \ref CY_FLASH_SIZEOF_ROW macro. Refer to the device datasheet for the
  76:Generated_Source\PSoC4/CyFlash.c **** * details.
  77:Generated_Source\PSoC4/CyFlash.c **** *
  78:Generated_Source\PSoC4/CyFlash.c **** * \return \ref group_flash_status_codes
  79:Generated_Source\PSoC4/CyFlash.c **** *
  80:Generated_Source\PSoC4/CyFlash.c **** *******************************************************************************/
  81:Generated_Source\PSoC4/CyFlash.c **** uint32 CySysFlashWriteRow(uint32 rowNum, const uint8 rowData[])
  82:Generated_Source\PSoC4/CyFlash.c **** {
  83:Generated_Source\PSoC4/CyFlash.c ****     volatile uint32 retValue = CY_SYS_FLASH_SUCCESS;
  84:Generated_Source\PSoC4/CyFlash.c ****     volatile uint32 clkCnfRetValue = CY_SYS_FLASH_SUCCESS;
  85:Generated_Source\PSoC4/CyFlash.c ****     volatile uint32 parameters[(CY_FLASH_SIZEOF_ROW + CY_FLASH_SRAM_ROM_DATA) / sizeof(uint32)];
  86:Generated_Source\PSoC4/CyFlash.c ****     uint8  interruptState;
  87:Generated_Source\PSoC4/CyFlash.c **** 
  88:Generated_Source\PSoC4/CyFlash.c ****     #if (CY_FLASH_CHECKSUM_WORKAROUND)
ARM GAS  C:\Users\ADEFIR~1\AppData\Local\Temp\ccDhNnbL.s 			page 3


  89:Generated_Source\PSoC4/CyFlash.c ****         uint32 needChecksumWorkaround = 0u;
  90:Generated_Source\PSoC4/CyFlash.c ****         uint32 savedIndex = 0u;
  91:Generated_Source\PSoC4/CyFlash.c ****         uint32 savedValue = 0u;
  92:Generated_Source\PSoC4/CyFlash.c ****         uint32 checksum = 0u;
  93:Generated_Source\PSoC4/CyFlash.c ****         uint32 bits = 0u;
  94:Generated_Source\PSoC4/CyFlash.c ****         uint32 i;
  95:Generated_Source\PSoC4/CyFlash.c ****     #endif  /* (CY_FLASH_CHECKSUM_WORKAROUND) */
  96:Generated_Source\PSoC4/CyFlash.c **** 
  97:Generated_Source\PSoC4/CyFlash.c ****     if ((rowNum < CY_FLASH_NUMBER_ROWS) && (rowData != 0u))
  98:Generated_Source\PSoC4/CyFlash.c ****     {
  99:Generated_Source\PSoC4/CyFlash.c ****         /* Copy data to be written into internal variable */
 100:Generated_Source\PSoC4/CyFlash.c ****         (void)memcpy((void *)&parameters[2u], rowData, CY_FLASH_SIZEOF_ROW);
 101:Generated_Source\PSoC4/CyFlash.c **** 
 102:Generated_Source\PSoC4/CyFlash.c ****         #if (CY_FLASH_CHECKSUM_WORKAROUND)
 103:Generated_Source\PSoC4/CyFlash.c **** 
 104:Generated_Source\PSoC4/CyFlash.c ****             for (i = 2u; i < ((CY_FLASH_SIZEOF_ROW / sizeof(uint32)) + 2u); i++)
 105:Generated_Source\PSoC4/CyFlash.c ****             {
 106:Generated_Source\PSoC4/CyFlash.c ****                 uint32 tmp = parameters[i];
 107:Generated_Source\PSoC4/CyFlash.c ****                 if (tmp != 0u)
 108:Generated_Source\PSoC4/CyFlash.c ****                 {
 109:Generated_Source\PSoC4/CyFlash.c ****                     checksum += tmp;
 110:Generated_Source\PSoC4/CyFlash.c ****                     bits |= tmp;
 111:Generated_Source\PSoC4/CyFlash.c ****                     savedIndex = i;
 112:Generated_Source\PSoC4/CyFlash.c ****                 }
 113:Generated_Source\PSoC4/CyFlash.c ****             }
 114:Generated_Source\PSoC4/CyFlash.c **** 
 115:Generated_Source\PSoC4/CyFlash.c ****             needChecksumWorkaround = ((checksum == 0u) && (bits != 0u)) ? 1u : 0u;
 116:Generated_Source\PSoC4/CyFlash.c ****             if (needChecksumWorkaround != 0u)
 117:Generated_Source\PSoC4/CyFlash.c ****             {
 118:Generated_Source\PSoC4/CyFlash.c ****                 savedValue = parameters[savedIndex];
 119:Generated_Source\PSoC4/CyFlash.c ****                 parameters[savedIndex] = 0u;
 120:Generated_Source\PSoC4/CyFlash.c ****             }
 121:Generated_Source\PSoC4/CyFlash.c ****         #endif  /* (CY_FLASH_CHECKSUM_WORKAROUND) */
 122:Generated_Source\PSoC4/CyFlash.c **** 
 123:Generated_Source\PSoC4/CyFlash.c ****         /* Load Flash Bytes */
 124:Generated_Source\PSoC4/CyFlash.c ****         parameters[0u] = (uint32) (CY_FLASH_GET_MACRO_FROM_ROW(rowNum)        << CY_FLASH_PARAM_MAC
 125:Generated_Source\PSoC4/CyFlash.c ****                          (uint32) (CY_FLASH_PAGE_LATCH_START_ADDR             << CY_FLASH_PARAM_ADD
 126:Generated_Source\PSoC4/CyFlash.c ****                          (uint32) (CY_FLASH_KEY_TWO(CY_FLASH_API_OPCODE_LOAD) << CY_FLASH_PARAM_KEY
 127:Generated_Source\PSoC4/CyFlash.c ****                          CY_FLASH_KEY_ONE;
 128:Generated_Source\PSoC4/CyFlash.c ****         parameters[1u] = CY_FLASH_SIZEOF_ROW - 1u;
 129:Generated_Source\PSoC4/CyFlash.c **** 
 130:Generated_Source\PSoC4/CyFlash.c ****         CY_FLASH_CPUSS_SYSARG_REG = (uint32) &parameters[0u];
 131:Generated_Source\PSoC4/CyFlash.c ****         CY_FLASH_CPUSS_SYSREQ_REG = CY_FLASH_CPUSS_REQ_START | CY_FLASH_API_OPCODE_LOAD;
 132:Generated_Source\PSoC4/CyFlash.c ****         CY_NOP;
 133:Generated_Source\PSoC4/CyFlash.c ****         retValue = CY_FLASH_API_RETURN;
 134:Generated_Source\PSoC4/CyFlash.c **** 
 135:Generated_Source\PSoC4/CyFlash.c ****         if(retValue == CY_SYS_FLASH_SUCCESS)
 136:Generated_Source\PSoC4/CyFlash.c ****         {
 137:Generated_Source\PSoC4/CyFlash.c ****             /***************************************************************
 138:Generated_Source\PSoC4/CyFlash.c ****             * Mask all the exceptions to guarantee that Flash write will
 139:Generated_Source\PSoC4/CyFlash.c ****             * occur in the atomic way. It will not affect system call
 140:Generated_Source\PSoC4/CyFlash.c ****             * execution (flash row write) since it is executed in the NMI
 141:Generated_Source\PSoC4/CyFlash.c ****             * context.
 142:Generated_Source\PSoC4/CyFlash.c ****             ***************************************************************/
 143:Generated_Source\PSoC4/CyFlash.c ****             interruptState = CyEnterCriticalSection();
 144:Generated_Source\PSoC4/CyFlash.c **** 
 145:Generated_Source\PSoC4/CyFlash.c ****             clkCnfRetValue = CySysFlashClockBackup();
ARM GAS  C:\Users\ADEFIR~1\AppData\Local\Temp\ccDhNnbL.s 			page 4


 146:Generated_Source\PSoC4/CyFlash.c **** 
 147:Generated_Source\PSoC4/CyFlash.c ****         #if(CY_IP_SPCIF_SYNCHRONOUS)
 148:Generated_Source\PSoC4/CyFlash.c ****             if(clkCnfRetValue == CY_SYS_FLASH_SUCCESS)
 149:Generated_Source\PSoC4/CyFlash.c ****             {
 150:Generated_Source\PSoC4/CyFlash.c ****                 retValue = CySysFlashClockConfig();
 151:Generated_Source\PSoC4/CyFlash.c ****             }
 152:Generated_Source\PSoC4/CyFlash.c ****         #endif  /* (CY_IP_SPCIF_SYNCHRONOUS) */
 153:Generated_Source\PSoC4/CyFlash.c **** 
 154:Generated_Source\PSoC4/CyFlash.c ****             if(retValue == CY_SYS_FLASH_SUCCESS)
 155:Generated_Source\PSoC4/CyFlash.c ****             {
 156:Generated_Source\PSoC4/CyFlash.c ****                 /* Write Row */
 157:Generated_Source\PSoC4/CyFlash.c ****                 parameters[0u]  = (uint32) (((uint32) CY_FLASH_KEY_TWO(CY_FLASH_API_OPCODE_WRITE_RO
 158:Generated_Source\PSoC4/CyFlash.c ****                 parameters[0u] |= (uint32)(rowNum << 16u);
 159:Generated_Source\PSoC4/CyFlash.c **** 
 160:Generated_Source\PSoC4/CyFlash.c ****                 CY_FLASH_CPUSS_SYSARG_REG = (uint32) &parameters[0u];
 161:Generated_Source\PSoC4/CyFlash.c ****                 CY_FLASH_CPUSS_SYSREQ_REG = CY_FLASH_CPUSS_REQ_START | CY_FLASH_API_OPCODE_WRITE_RO
 162:Generated_Source\PSoC4/CyFlash.c ****                 CY_NOP;
 163:Generated_Source\PSoC4/CyFlash.c ****                 retValue = CY_FLASH_API_RETURN;
 164:Generated_Source\PSoC4/CyFlash.c ****             }
 165:Generated_Source\PSoC4/CyFlash.c **** 
 166:Generated_Source\PSoC4/CyFlash.c ****             #if (CY_FLASH_CHECKSUM_WORKAROUND)
 167:Generated_Source\PSoC4/CyFlash.c **** 
 168:Generated_Source\PSoC4/CyFlash.c ****                 if ((retValue == CYRET_SUCCESS) && (needChecksumWorkaround != 0u))
 169:Generated_Source\PSoC4/CyFlash.c ****                 {
 170:Generated_Source\PSoC4/CyFlash.c ****                     (void)memset((void *)&parameters[2u], 0, CY_FLASH_SIZEOF_ROW);
 171:Generated_Source\PSoC4/CyFlash.c ****                     parameters[savedIndex] = savedValue;
 172:Generated_Source\PSoC4/CyFlash.c **** 
 173:Generated_Source\PSoC4/CyFlash.c ****                     /* Load Flash Bytes */
 174:Generated_Source\PSoC4/CyFlash.c ****                     parameters[0u] = (uint32) (CY_FLASH_GET_MACRO_FROM_ROW(rowNum)        << CY_FLA
 175:Generated_Source\PSoC4/CyFlash.c ****                                      (uint32) (CY_FLASH_PAGE_LATCH_START_ADDR             << CY_FLA
 176:Generated_Source\PSoC4/CyFlash.c ****                                      (uint32) (CY_FLASH_KEY_TWO(CY_FLASH_API_OPCODE_LOAD) << CY_FLA
 177:Generated_Source\PSoC4/CyFlash.c ****                                      CY_FLASH_KEY_ONE;
 178:Generated_Source\PSoC4/CyFlash.c ****                     parameters[1u] = CY_FLASH_SIZEOF_ROW - 1u;
 179:Generated_Source\PSoC4/CyFlash.c **** 
 180:Generated_Source\PSoC4/CyFlash.c ****                     CY_FLASH_CPUSS_SYSARG_REG = (uint32) &parameters[0u];
 181:Generated_Source\PSoC4/CyFlash.c ****                     CY_FLASH_CPUSS_SYSREQ_REG = CY_FLASH_CPUSS_REQ_START | CY_FLASH_API_OPCODE_LOAD
 182:Generated_Source\PSoC4/CyFlash.c ****                     CY_NOP;
 183:Generated_Source\PSoC4/CyFlash.c ****                     retValue = CY_FLASH_API_RETURN;
 184:Generated_Source\PSoC4/CyFlash.c **** 
 185:Generated_Source\PSoC4/CyFlash.c **** 
 186:Generated_Source\PSoC4/CyFlash.c ****                     if(retValue == CY_SYS_FLASH_SUCCESS)
 187:Generated_Source\PSoC4/CyFlash.c ****                     {
 188:Generated_Source\PSoC4/CyFlash.c ****                         /* Program Row */
 189:Generated_Source\PSoC4/CyFlash.c ****                         parameters[0u]  =
 190:Generated_Source\PSoC4/CyFlash.c ****                             (uint32) (((uint32) CY_FLASH_KEY_TWO(CY_FLASH_API_OPCODE_PROGRAM_ROW) <
 191:Generated_Source\PSoC4/CyFlash.c ****                                                     CY_FLASH_PARAM_KEY_TWO_OFFSET) | CY_FLASH_KEY_O
 192:Generated_Source\PSoC4/CyFlash.c ****                         parameters[0u] |= (uint32)(rowNum << 16u);
 193:Generated_Source\PSoC4/CyFlash.c **** 
 194:Generated_Source\PSoC4/CyFlash.c ****                         CY_FLASH_CPUSS_SYSARG_REG = (uint32) &parameters[0u];
 195:Generated_Source\PSoC4/CyFlash.c ****                         CY_FLASH_CPUSS_SYSREQ_REG = CY_FLASH_CPUSS_REQ_START | CY_FLASH_API_OPCODE_
 196:Generated_Source\PSoC4/CyFlash.c ****                         CY_NOP;
 197:Generated_Source\PSoC4/CyFlash.c ****                         retValue = CY_FLASH_API_RETURN;
 198:Generated_Source\PSoC4/CyFlash.c ****                     }
 199:Generated_Source\PSoC4/CyFlash.c ****                 }
 200:Generated_Source\PSoC4/CyFlash.c ****             #endif  /* (CY_FLASH_CHECKSUM_WORKAROUND) */
 201:Generated_Source\PSoC4/CyFlash.c **** 
 202:Generated_Source\PSoC4/CyFlash.c ****             if(clkCnfRetValue == CY_SYS_FLASH_SUCCESS)
ARM GAS  C:\Users\ADEFIR~1\AppData\Local\Temp\ccDhNnbL.s 			page 5


 203:Generated_Source\PSoC4/CyFlash.c ****             {
 204:Generated_Source\PSoC4/CyFlash.c ****                 clkCnfRetValue = CySysFlashClockRestore();
 205:Generated_Source\PSoC4/CyFlash.c **** 
 206:Generated_Source\PSoC4/CyFlash.c ****                 if(clkCnfRetValue != CY_SYS_FLASH_SUCCESS)
 207:Generated_Source\PSoC4/CyFlash.c ****                 {
 208:Generated_Source\PSoC4/CyFlash.c ****                     retValue = clkCnfRetValue;
 209:Generated_Source\PSoC4/CyFlash.c ****                 }
 210:Generated_Source\PSoC4/CyFlash.c ****             }
 211:Generated_Source\PSoC4/CyFlash.c **** 
 212:Generated_Source\PSoC4/CyFlash.c ****             CyExitCriticalSection(interruptState);
 213:Generated_Source\PSoC4/CyFlash.c ****         }
 214:Generated_Source\PSoC4/CyFlash.c ****     }
 215:Generated_Source\PSoC4/CyFlash.c ****     else
 216:Generated_Source\PSoC4/CyFlash.c ****     {
 217:Generated_Source\PSoC4/CyFlash.c ****         retValue = CY_SYS_FLASH_INVALID_ADDR;
 218:Generated_Source\PSoC4/CyFlash.c ****     }
 219:Generated_Source\PSoC4/CyFlash.c **** 
 220:Generated_Source\PSoC4/CyFlash.c ****     return (retValue);
 221:Generated_Source\PSoC4/CyFlash.c **** }
 222:Generated_Source\PSoC4/CyFlash.c **** 
 223:Generated_Source\PSoC4/CyFlash.c **** 
 224:Generated_Source\PSoC4/CyFlash.c **** 
 225:Generated_Source\PSoC4/CyFlash.c **** #if (CY_IP_FLASH_PARALLEL_PGM_EN && (CY_IP_FLASH_MACROS > 1u))
 226:Generated_Source\PSoC4/CyFlash.c **** /*******************************************************************************
 227:Generated_Source\PSoC4/CyFlash.c **** * Function Name: CySysFlashStartWriteRow
 228:Generated_Source\PSoC4/CyFlash.c **** ****************************************************************************//**
 229:Generated_Source\PSoC4/CyFlash.c **** *
 230:Generated_Source\PSoC4/CyFlash.c **** * Initiates a write to a row of Flash. A call to this API is non-blocking. 
 231:Generated_Source\PSoC4/CyFlash.c **** * Use CySysFlashResumeWriteRow() to resume flash writes and 
 232:Generated_Source\PSoC4/CyFlash.c **** * CySysFlashGetWriteRowStatus() to ascertain status of the write operation.
 233:Generated_Source\PSoC4/CyFlash.c **** *
 234:Generated_Source\PSoC4/CyFlash.c **** * The devices require HFCLK to be sourced by 48 MHz IMO during flash write.
 235:Generated_Source\PSoC4/CyFlash.c **** * This API will modify IMO configuration; it can be later restored to original
 236:Generated_Source\PSoC4/CyFlash.c **** * configuration by calling \ref CySysFlashGetWriteRowStatus().
 237:Generated_Source\PSoC4/CyFlash.c **** *
 238:Generated_Source\PSoC4/CyFlash.c **** * \note The non-blocking operation does not return success status 
 239:Generated_Source\PSoC4/CyFlash.c **** * CY_SYS_FLASH_SUCCESS until the last \ref CySysFlashResumeWriteRow API 
 240:Generated_Source\PSoC4/CyFlash.c **** * is complete. The CPUSS_SYSARG register will be reflecting the SRAM address 
 241:Generated_Source\PSoC4/CyFlash.c **** * during an ongoing non-blocking operation.
 242:Generated_Source\PSoC4/CyFlash.c **** *    
 243:Generated_Source\PSoC4/CyFlash.c **** * \param rowNum The flash row number. The number of the flash rows is defined by
 244:Generated_Source\PSoC4/CyFlash.c **** * the \ref CY_FLASH_NUMBER_ROWS macro for the selected device. Refer to the
 245:Generated_Source\PSoC4/CyFlash.c **** * device datasheet for the details.
 246:Generated_Source\PSoC4/CyFlash.c **** * \note The target flash array is calculated based on the specified flash row.
 247:Generated_Source\PSoC4/CyFlash.c **** *
 248:Generated_Source\PSoC4/CyFlash.c **** * \param rowData Array of bytes to write. The size of the array must be equal to
 249:Generated_Source\PSoC4/CyFlash.c **** * the flash row size. The flash row size for the selected device is defined by
 250:Generated_Source\PSoC4/CyFlash.c **** * the \ref CY_FLASH_SIZEOF_ROW macro. Refer to the device datasheet for the
 251:Generated_Source\PSoC4/CyFlash.c **** * details.
 252:Generated_Source\PSoC4/CyFlash.c **** *
 253:Generated_Source\PSoC4/CyFlash.c **** * \return \ref group_flash_status_codes
 254:Generated_Source\PSoC4/CyFlash.c **** *
 255:Generated_Source\PSoC4/CyFlash.c **** *******************************************************************************/
 256:Generated_Source\PSoC4/CyFlash.c **** uint32 CySysFlashStartWriteRow(uint32 rowNum, const uint8 rowData[])
 257:Generated_Source\PSoC4/CyFlash.c **** {
 258:Generated_Source\PSoC4/CyFlash.c ****     volatile uint32 retValue = CY_SYS_FLASH_SUCCESS;
 259:Generated_Source\PSoC4/CyFlash.c ****     volatile uint32 parameters[(CY_FLASH_SIZEOF_ROW + CY_FLASH_SRAM_ROM_DATA) / sizeof(uint32)];
ARM GAS  C:\Users\ADEFIR~1\AppData\Local\Temp\ccDhNnbL.s 			page 6


 260:Generated_Source\PSoC4/CyFlash.c ****     uint8  interruptState;
 261:Generated_Source\PSoC4/CyFlash.c **** 
 262:Generated_Source\PSoC4/CyFlash.c **** #if(CY_IP_SPCIF_SYNCHRONOUS)
 263:Generated_Source\PSoC4/CyFlash.c ****     volatile uint32 clkCnfRetValue = CY_SYS_FLASH_SUCCESS;
 264:Generated_Source\PSoC4/CyFlash.c **** #endif  /* (CY_IP_SPCIF_SYNCHRONOUS) */    
 265:Generated_Source\PSoC4/CyFlash.c **** 
 266:Generated_Source\PSoC4/CyFlash.c ****     if ((rowNum < CY_FLASH_NUMBER_ROWS) && (rowData != 0u))
 267:Generated_Source\PSoC4/CyFlash.c ****     {
 268:Generated_Source\PSoC4/CyFlash.c ****         /* Copy data to be written into internal variable */
 269:Generated_Source\PSoC4/CyFlash.c ****         (void)memcpy((void *)&parameters[2u], rowData, CY_FLASH_SIZEOF_ROW);
 270:Generated_Source\PSoC4/CyFlash.c **** 
 271:Generated_Source\PSoC4/CyFlash.c ****         /* Load Flash Bytes */
 272:Generated_Source\PSoC4/CyFlash.c ****         parameters[0u] = (uint32) (CY_FLASH_GET_MACRO_FROM_ROW(rowNum)        << CY_FLASH_PARAM_MAC
 273:Generated_Source\PSoC4/CyFlash.c ****                          (uint32) (CY_FLASH_PAGE_LATCH_START_ADDR             << CY_FLASH_PARAM_ADD
 274:Generated_Source\PSoC4/CyFlash.c ****                          (uint32) (CY_FLASH_KEY_TWO(CY_FLASH_API_OPCODE_LOAD) << CY_FLASH_PARAM_KEY
 275:Generated_Source\PSoC4/CyFlash.c ****                          CY_FLASH_KEY_ONE;
 276:Generated_Source\PSoC4/CyFlash.c ****         parameters[1u] = CY_FLASH_SIZEOF_ROW - 1u;
 277:Generated_Source\PSoC4/CyFlash.c **** 
 278:Generated_Source\PSoC4/CyFlash.c ****         CY_FLASH_CPUSS_SYSARG_REG = (uint32) &parameters[0u];
 279:Generated_Source\PSoC4/CyFlash.c ****         CY_FLASH_CPUSS_SYSREQ_REG = CY_FLASH_CPUSS_REQ_START | CY_FLASH_API_OPCODE_LOAD;
 280:Generated_Source\PSoC4/CyFlash.c ****         CY_NOP;
 281:Generated_Source\PSoC4/CyFlash.c ****         retValue = CY_FLASH_API_RETURN;
 282:Generated_Source\PSoC4/CyFlash.c **** 
 283:Generated_Source\PSoC4/CyFlash.c ****         if(retValue == CY_SYS_FLASH_SUCCESS)
 284:Generated_Source\PSoC4/CyFlash.c ****         {
 285:Generated_Source\PSoC4/CyFlash.c ****             /***************************************************************
 286:Generated_Source\PSoC4/CyFlash.c ****             * Mask all the exceptions to guarantee that Flash write will
 287:Generated_Source\PSoC4/CyFlash.c ****             * occur in the atomic way. It will not affect system call
 288:Generated_Source\PSoC4/CyFlash.c ****             * execution (flash row write) since it is executed in the NMI
 289:Generated_Source\PSoC4/CyFlash.c ****             * context.
 290:Generated_Source\PSoC4/CyFlash.c ****             ***************************************************************/
 291:Generated_Source\PSoC4/CyFlash.c ****             interruptState = CyEnterCriticalSection();
 292:Generated_Source\PSoC4/CyFlash.c **** 
 293:Generated_Source\PSoC4/CyFlash.c ****         #if(CY_IP_SPCIF_SYNCHRONOUS)
 294:Generated_Source\PSoC4/CyFlash.c ****             clkCnfRetValue = CySysFlashClockBackup();
 295:Generated_Source\PSoC4/CyFlash.c ****             
 296:Generated_Source\PSoC4/CyFlash.c ****             if(clkCnfRetValue == CY_SYS_FLASH_SUCCESS)
 297:Generated_Source\PSoC4/CyFlash.c ****             {
 298:Generated_Source\PSoC4/CyFlash.c ****                 retValue = CySysFlashClockConfig();
 299:Generated_Source\PSoC4/CyFlash.c ****             }
 300:Generated_Source\PSoC4/CyFlash.c ****         #else
 301:Generated_Source\PSoC4/CyFlash.c ****             (void)CySysFlashClockBackup();
 302:Generated_Source\PSoC4/CyFlash.c ****         #endif  /* (CY_IP_SPCIF_SYNCHRONOUS) */
 303:Generated_Source\PSoC4/CyFlash.c **** 
 304:Generated_Source\PSoC4/CyFlash.c ****             if(retValue == CY_SYS_FLASH_SUCCESS)
 305:Generated_Source\PSoC4/CyFlash.c ****             {
 306:Generated_Source\PSoC4/CyFlash.c ****                 /* Non-blocking Write Row */
 307:Generated_Source\PSoC4/CyFlash.c ****                 parameters[0u]  = (uint32) (((uint32) CY_FLASH_KEY_TWO(CY_FLASH_API_OPCODE_NON_BLOC
 308:Generated_Source\PSoC4/CyFlash.c ****                                                         CY_FLASH_PARAM_KEY_TWO_OFFSET) | CY_FLASH_K
 309:Generated_Source\PSoC4/CyFlash.c ****                 parameters[0u] |= (uint32)(rowNum << 16u);
 310:Generated_Source\PSoC4/CyFlash.c **** 
 311:Generated_Source\PSoC4/CyFlash.c ****                 CY_FLASH_CPUSS_SYSARG_REG = (uint32) &parameters[0u];
 312:Generated_Source\PSoC4/CyFlash.c ****                 CY_FLASH_CPUSS_SYSREQ_REG = CY_FLASH_CPUSS_REQ_START | CY_FLASH_API_OPCODE_NON_BLOC
 313:Generated_Source\PSoC4/CyFlash.c ****                 CY_NOP;
 314:Generated_Source\PSoC4/CyFlash.c ****                 retValue = CY_FLASH_API_RETURN;
 315:Generated_Source\PSoC4/CyFlash.c ****             }
 316:Generated_Source\PSoC4/CyFlash.c **** 
ARM GAS  C:\Users\ADEFIR~1\AppData\Local\Temp\ccDhNnbL.s 			page 7


 317:Generated_Source\PSoC4/CyFlash.c ****             CyExitCriticalSection(interruptState);
 318:Generated_Source\PSoC4/CyFlash.c ****         }
 319:Generated_Source\PSoC4/CyFlash.c ****     }
 320:Generated_Source\PSoC4/CyFlash.c ****     else
 321:Generated_Source\PSoC4/CyFlash.c ****     {
 322:Generated_Source\PSoC4/CyFlash.c ****         retValue = CY_SYS_FLASH_INVALID_ADDR;
 323:Generated_Source\PSoC4/CyFlash.c ****     }
 324:Generated_Source\PSoC4/CyFlash.c **** 
 325:Generated_Source\PSoC4/CyFlash.c ****     return (retValue);
 326:Generated_Source\PSoC4/CyFlash.c **** }
 327:Generated_Source\PSoC4/CyFlash.c **** 
 328:Generated_Source\PSoC4/CyFlash.c **** 
 329:Generated_Source\PSoC4/CyFlash.c **** /*******************************************************************************
 330:Generated_Source\PSoC4/CyFlash.c **** * Function Name: CySysFlashGetWriteRowStatus
 331:Generated_Source\PSoC4/CyFlash.c **** ****************************************************************************//**
 332:Generated_Source\PSoC4/CyFlash.c **** *
 333:Generated_Source\PSoC4/CyFlash.c **** * Returns the current status of the flash write operation.
 334:Generated_Source\PSoC4/CyFlash.c **** *
 335:Generated_Source\PSoC4/CyFlash.c **** ** \note The non-blocking operation does not return success status 
 336:Generated_Source\PSoC4/CyFlash.c **** * CY_SYS_FLASH_SUCCESS until the last \ref CySysFlashResumeWriteRow API 
 337:Generated_Source\PSoC4/CyFlash.c **** * is complete. The CPUSS_SYSARG register will be reflecting the SRAM address 
 338:Generated_Source\PSoC4/CyFlash.c **** * during an ongoing non-blocking operation.
 339:Generated_Source\PSoC4/CyFlash.c **** * Calling this API before starting a non-blocking write row operation 
 340:Generated_Source\PSoC4/CyFlash.c **** * using the \ref CySysFlashStartWriteRow() API will cause improper operation.
 341:Generated_Source\PSoC4/CyFlash.c **** *
 342:Generated_Source\PSoC4/CyFlash.c **** * \return \ref group_flash_status_codes
 343:Generated_Source\PSoC4/CyFlash.c **** *
 344:Generated_Source\PSoC4/CyFlash.c **** *******************************************************************************/
 345:Generated_Source\PSoC4/CyFlash.c **** uint32 CySysFlashGetWriteRowStatus(void)
 346:Generated_Source\PSoC4/CyFlash.c **** {
 347:Generated_Source\PSoC4/CyFlash.c ****     volatile uint32 retValue = CY_SYS_FLASH_SUCCESS;
 348:Generated_Source\PSoC4/CyFlash.c **** 
 349:Generated_Source\PSoC4/CyFlash.c ****     CY_NOP;
 350:Generated_Source\PSoC4/CyFlash.c ****     retValue = CY_FLASH_API_RETURN;
 351:Generated_Source\PSoC4/CyFlash.c **** 
 352:Generated_Source\PSoC4/CyFlash.c ****     (void) CySysFlashClockRestore();
 353:Generated_Source\PSoC4/CyFlash.c **** 
 354:Generated_Source\PSoC4/CyFlash.c ****     return (retValue);
 355:Generated_Source\PSoC4/CyFlash.c **** }
 356:Generated_Source\PSoC4/CyFlash.c **** 
 357:Generated_Source\PSoC4/CyFlash.c **** 
 358:Generated_Source\PSoC4/CyFlash.c **** /*******************************************************************************
 359:Generated_Source\PSoC4/CyFlash.c **** * Function Name: CySysFlashResumeWriteRow
 360:Generated_Source\PSoC4/CyFlash.c **** ****************************************************************************//**
 361:Generated_Source\PSoC4/CyFlash.c **** *
 362:Generated_Source\PSoC4/CyFlash.c **** * This API must be called, once the SPC interrupt is triggered to complete the
 363:Generated_Source\PSoC4/CyFlash.c **** * non-blocking operation. It is advised not to prolong calling this API for
 364:Generated_Source\PSoC4/CyFlash.c **** * more than 25 ms.
 365:Generated_Source\PSoC4/CyFlash.c **** *
 366:Generated_Source\PSoC4/CyFlash.c **** * The non-blocking write row API \ref CySysFlashStartWriteRow() requires that
 367:Generated_Source\PSoC4/CyFlash.c **** * this API be called 3 times to complete the write. This can be done by
 368:Generated_Source\PSoC4/CyFlash.c **** * configuring SPCIF interrupt and placing a call to this API.
 369:Generated_Source\PSoC4/CyFlash.c **** *
 370:Generated_Source\PSoC4/CyFlash.c **** * For CM0 based device, a non-blocking call to program a row of macro 0
 371:Generated_Source\PSoC4/CyFlash.c **** * requires the user to set the CPUSS_CONFIG.VECS_IN_RAM bit so that the
 372:Generated_Source\PSoC4/CyFlash.c **** * interrupt vector for the SPC is fetched from the SRAM rather than the FLASH.
 373:Generated_Source\PSoC4/CyFlash.c **** *
ARM GAS  C:\Users\ADEFIR~1\AppData\Local\Temp\ccDhNnbL.s 			page 8


 374:Generated_Source\PSoC4/CyFlash.c **** * For CM0+ based device, if the user wants to keep the vector table in flash
 375:Generated_Source\PSoC4/CyFlash.c **** * when performing non-blocking flash write then they need to make sure the
 376:Generated_Source\PSoC4/CyFlash.c **** * vector table is placed in the flash macro which is not getting programmed by
 377:Generated_Source\PSoC4/CyFlash.c **** * configuring the VTOR register.
 378:Generated_Source\PSoC4/CyFlash.c **** *
 379:Generated_Source\PSoC4/CyFlash.c **** * \note The non-blocking operation does not return success status 
 380:Generated_Source\PSoC4/CyFlash.c **** * CY_SYS_FLASH_SUCCESS until the last Resume API is complete. 
 381:Generated_Source\PSoC4/CyFlash.c **** * The CPUSS_SYSARG register will be reflecting the SRAM address during an 
 382:Generated_Source\PSoC4/CyFlash.c **** * ongoing non-blocking operation.
 383:Generated_Source\PSoC4/CyFlash.c **** *
 384:Generated_Source\PSoC4/CyFlash.c **** * \return \ref group_flash_status_codes
 385:Generated_Source\PSoC4/CyFlash.c **** *
 386:Generated_Source\PSoC4/CyFlash.c **** *******************************************************************************/
 387:Generated_Source\PSoC4/CyFlash.c **** uint32 CySysFlashResumeWriteRow(void)
 388:Generated_Source\PSoC4/CyFlash.c **** {
 389:Generated_Source\PSoC4/CyFlash.c ****     volatile uint32 retValue = CY_SYS_FLASH_SUCCESS;
 390:Generated_Source\PSoC4/CyFlash.c ****     static volatile uint32 parameters[1u];
 391:Generated_Source\PSoC4/CyFlash.c **** 
 392:Generated_Source\PSoC4/CyFlash.c ****     /* Resume */
 393:Generated_Source\PSoC4/CyFlash.c ****     parameters[0u] = (uint32) (((uint32) CY_FLASH_KEY_TWO(CY_FLASH_API_OPCODE_RESUME_NON_BLOCKING) 
 394:Generated_Source\PSoC4/CyFlash.c ****                                          CY_FLASH_PARAM_KEY_TWO_OFFSET) | CY_FLASH_KEY_ONE);
 395:Generated_Source\PSoC4/CyFlash.c ****     CY_FLASH_CPUSS_SYSARG_REG = (uint32) &parameters[0u];
 396:Generated_Source\PSoC4/CyFlash.c ****     CY_FLASH_CPUSS_SYSREQ_REG = CY_FLASH_CPUSS_REQ_START | CY_FLASH_API_OPCODE_RESUME_NON_BLOCKING;
 397:Generated_Source\PSoC4/CyFlash.c ****     
 398:Generated_Source\PSoC4/CyFlash.c ****     CY_NOP;
 399:Generated_Source\PSoC4/CyFlash.c ****     retValue = CY_FLASH_API_RETURN;
 400:Generated_Source\PSoC4/CyFlash.c ****     
 401:Generated_Source\PSoC4/CyFlash.c ****     return (retValue);
 402:Generated_Source\PSoC4/CyFlash.c **** }
 403:Generated_Source\PSoC4/CyFlash.c **** 
 404:Generated_Source\PSoC4/CyFlash.c **** #endif /* (CY_IP_FLASH_PARALLEL_PGM_EN && (CY_IP_FLASH_MACROS > 1u)) */
 405:Generated_Source\PSoC4/CyFlash.c **** 
 406:Generated_Source\PSoC4/CyFlash.c **** 
 407:Generated_Source\PSoC4/CyFlash.c **** /*******************************************************************************
 408:Generated_Source\PSoC4/CyFlash.c **** * Function Name: CySysFlashSetWaitCycles
 409:Generated_Source\PSoC4/CyFlash.c **** ****************************************************************************//**
 410:Generated_Source\PSoC4/CyFlash.c **** *
 411:Generated_Source\PSoC4/CyFlash.c **** * Sets the number of clock cycles the cache will wait before it samples data
 412:Generated_Source\PSoC4/CyFlash.c **** * coming back from Flash. This function must be called before increasing the
 413:Generated_Source\PSoC4/CyFlash.c **** * SYSCLK clock frequency. It can optionally be called after lowering SYSCLK
 414:Generated_Source\PSoC4/CyFlash.c **** * clock frequency in order to improve the CPU performance.
 415:Generated_Source\PSoC4/CyFlash.c **** *
 416:Generated_Source\PSoC4/CyFlash.c **** * \param freq The System clock frequency in MHz.
 417:Generated_Source\PSoC4/CyFlash.c **** *
 418:Generated_Source\PSoC4/CyFlash.c **** * \note Invalid frequency will be ignored in Release mode and the CPU will be
 419:Generated_Source\PSoC4/CyFlash.c **** * halted if project is compiled in Debug mode.
 420:Generated_Source\PSoC4/CyFlash.c **** *
 421:Generated_Source\PSoC4/CyFlash.c **** *******************************************************************************/
 422:Generated_Source\PSoC4/CyFlash.c **** void CySysFlashSetWaitCycles(uint32 freq)
 423:Generated_Source\PSoC4/CyFlash.c **** {
 424:Generated_Source\PSoC4/CyFlash.c ****     uint8  interruptState;
 425:Generated_Source\PSoC4/CyFlash.c **** 
 426:Generated_Source\PSoC4/CyFlash.c ****     interruptState = CyEnterCriticalSection();
 427:Generated_Source\PSoC4/CyFlash.c **** 
 428:Generated_Source\PSoC4/CyFlash.c ****     #if (CY_IP_CPUSS)
 429:Generated_Source\PSoC4/CyFlash.c **** 
 430:Generated_Source\PSoC4/CyFlash.c ****         if ( freq <= CY_FLASH_SYSCLK_BOUNDARY_MHZ )
ARM GAS  C:\Users\ADEFIR~1\AppData\Local\Temp\ccDhNnbL.s 			page 9


 431:Generated_Source\PSoC4/CyFlash.c ****         {
 432:Generated_Source\PSoC4/CyFlash.c ****             CY_SYS_CLK_SELECT_REG &= (uint32)(~CY_FLASH_WAIT_STATE_EN);
 433:Generated_Source\PSoC4/CyFlash.c ****         }
 434:Generated_Source\PSoC4/CyFlash.c ****         else
 435:Generated_Source\PSoC4/CyFlash.c ****         {
 436:Generated_Source\PSoC4/CyFlash.c ****             CY_SYS_CLK_SELECT_REG |= CY_FLASH_WAIT_STATE_EN;
 437:Generated_Source\PSoC4/CyFlash.c ****         }
 438:Generated_Source\PSoC4/CyFlash.c ****     #else
 439:Generated_Source\PSoC4/CyFlash.c ****         #if (CY_IP_CPUSS_FLASHC_PRESENT)
 440:Generated_Source\PSoC4/CyFlash.c ****             /* CY_IP_FM and CY_IP_FS */
 441:Generated_Source\PSoC4/CyFlash.c ****             if (freq <= CY_FLASH_CTL_WS_0_FREQ_MAX)
 442:Generated_Source\PSoC4/CyFlash.c ****             {
 443:Generated_Source\PSoC4/CyFlash.c ****                 CY_FLASH_CTL_REG = (CY_FLASH_CTL_REG & ~CY_FLASH_CTL_WS_MASK) | CY_FLASH_CTL_WS_0_V
 444:Generated_Source\PSoC4/CyFlash.c ****             } else
 445:Generated_Source\PSoC4/CyFlash.c ****             if (freq <= CY_FLASH_CTL_WS_1_FREQ_MAX)
 446:Generated_Source\PSoC4/CyFlash.c ****             {
 447:Generated_Source\PSoC4/CyFlash.c ****                 CY_FLASH_CTL_REG = (CY_FLASH_CTL_REG & ~CY_FLASH_CTL_WS_MASK) | CY_FLASH_CTL_WS_1_V
 448:Generated_Source\PSoC4/CyFlash.c ****             } else
 449:Generated_Source\PSoC4/CyFlash.c ****             #if (CY_IP_FMLT || CY_IP_FSLT)
 450:Generated_Source\PSoC4/CyFlash.c ****                 if (freq <= CY_FLASH_CTL_WS_2_FREQ_MAX)
 451:Generated_Source\PSoC4/CyFlash.c ****                 {
 452:Generated_Source\PSoC4/CyFlash.c ****                     CY_FLASH_CTL_REG = (CY_FLASH_CTL_REG & ~CY_FLASH_CTL_WS_MASK) | CY_FLASH_CTL_WS
 453:Generated_Source\PSoC4/CyFlash.c ****                 }
 454:Generated_Source\PSoC4/CyFlash.c ****                 else
 455:Generated_Source\PSoC4/CyFlash.c ****             #endif  /* (CY_IP_FMLT || CY_IP_FSLT) */
 456:Generated_Source\PSoC4/CyFlash.c ****         #endif /* (CY_IP_CPUSS_FLASHC_PRESENT) */
 457:Generated_Source\PSoC4/CyFlash.c ****         {
 458:Generated_Source\PSoC4/CyFlash.c ****             /* Halt CPU in debug mode if frequency is invalid */
 459:Generated_Source\PSoC4/CyFlash.c ****             CYASSERT(0u != 0u);
 460:Generated_Source\PSoC4/CyFlash.c ****         }
 461:Generated_Source\PSoC4/CyFlash.c **** 
 462:Generated_Source\PSoC4/CyFlash.c ****     #endif  /* (CY_IP_CPUSS) */
 463:Generated_Source\PSoC4/CyFlash.c **** 
 464:Generated_Source\PSoC4/CyFlash.c ****     CyExitCriticalSection(interruptState);
 465:Generated_Source\PSoC4/CyFlash.c **** }
 466:Generated_Source\PSoC4/CyFlash.c **** 
 467:Generated_Source\PSoC4/CyFlash.c **** 
 468:Generated_Source\PSoC4/CyFlash.c **** #if (CY_SFLASH_XTRA_ROWS)
 469:Generated_Source\PSoC4/CyFlash.c **** /*******************************************************************************
 470:Generated_Source\PSoC4/CyFlash.c **** * Function Name: CySysSFlashWriteUserRow
 471:Generated_Source\PSoC4/CyFlash.c **** ****************************************************************************//**
 472:Generated_Source\PSoC4/CyFlash.c **** *
 473:Generated_Source\PSoC4/CyFlash.c **** * Writes data to a row of SFlash user configurable area.
 474:Generated_Source\PSoC4/CyFlash.c **** *
 475:Generated_Source\PSoC4/CyFlash.c **** * This API is applicable for PSoC 4100 BLE, PSoC 4200 BLE, PSoC 4100M,
 476:Generated_Source\PSoC4/CyFlash.c **** * PSoC 4200M, and PSoC 4200L family of devices.
 477:Generated_Source\PSoC4/CyFlash.c **** *
 478:Generated_Source\PSoC4/CyFlash.c **** * \param rowNum The flash row number. The flash row number. The number of the
 479:Generated_Source\PSoC4/CyFlash.c **** * flash rows is defined by the CY_SFLASH_NUMBER_USERROWS macro for the selected
 480:Generated_Source\PSoC4/CyFlash.c **** * device. Valid range is 0-3. Refer to the device TRM for details.
 481:Generated_Source\PSoC4/CyFlash.c **** *
 482:Generated_Source\PSoC4/CyFlash.c **** * \param rowData Array of bytes to write. The size of the array must be equal to
 483:Generated_Source\PSoC4/CyFlash.c **** * the flash row size. The flash row size for the selected device is defined by
 484:Generated_Source\PSoC4/CyFlash.c **** * the \ref CY_SFLASH_SIZEOF_USERROW macro. Refer to the device TRM for the
 485:Generated_Source\PSoC4/CyFlash.c **** * details.
 486:Generated_Source\PSoC4/CyFlash.c **** *
 487:Generated_Source\PSoC4/CyFlash.c **** * \return \ref group_flash_status_codes
ARM GAS  C:\Users\ADEFIR~1\AppData\Local\Temp\ccDhNnbL.s 			page 10


 488:Generated_Source\PSoC4/CyFlash.c **** *
 489:Generated_Source\PSoC4/CyFlash.c **** *******************************************************************************/
 490:Generated_Source\PSoC4/CyFlash.c **** uint32 CySysSFlashWriteUserRow(uint32 rowNum, const uint8 rowData[])
 491:Generated_Source\PSoC4/CyFlash.c **** {
 492:Generated_Source\PSoC4/CyFlash.c ****     volatile uint32 retValue = CY_SYS_FLASH_SUCCESS;
 493:Generated_Source\PSoC4/CyFlash.c ****     volatile uint32 clkCnfRetValue = CY_SYS_FLASH_SUCCESS;
 494:Generated_Source\PSoC4/CyFlash.c ****     volatile uint32 parameters[(CY_FLASH_SIZEOF_ROW + CY_FLASH_SRAM_ROM_DATA)/4u];
 495:Generated_Source\PSoC4/CyFlash.c ****     uint8  interruptState;
 496:Generated_Source\PSoC4/CyFlash.c **** 
 497:Generated_Source\PSoC4/CyFlash.c **** 
 498:Generated_Source\PSoC4/CyFlash.c ****     if ((rowNum < CY_SFLASH_NUMBER_USERROWS) && (rowData != 0u))
 499:Generated_Source\PSoC4/CyFlash.c ****     {
 500:Generated_Source\PSoC4/CyFlash.c ****         /* Load Flash Bytes */
 501:Generated_Source\PSoC4/CyFlash.c ****         parameters[0u] = (uint32) (CY_FLASH_GET_MACRO_FROM_ROW(rowNum)        << CY_FLASH_PARAM_MAC
 502:Generated_Source\PSoC4/CyFlash.c ****                          (uint32) (CY_FLASH_PAGE_LATCH_START_ADDR             << CY_FLASH_PARAM_ADD
 503:Generated_Source\PSoC4/CyFlash.c ****                          (uint32) (CY_FLASH_KEY_TWO(CY_FLASH_API_OPCODE_LOAD) << CY_FLASH_PARAM_KEY
 504:Generated_Source\PSoC4/CyFlash.c ****                          CY_FLASH_KEY_ONE;
 505:Generated_Source\PSoC4/CyFlash.c ****         parameters[1u] = CY_FLASH_SIZEOF_ROW - 1u;
 506:Generated_Source\PSoC4/CyFlash.c **** 
 507:Generated_Source\PSoC4/CyFlash.c ****         (void)memcpy((void *)&parameters[2u], rowData, CY_FLASH_SIZEOF_ROW);
 508:Generated_Source\PSoC4/CyFlash.c ****         CY_FLASH_CPUSS_SYSARG_REG = (uint32) &parameters[0u];
 509:Generated_Source\PSoC4/CyFlash.c ****         CY_FLASH_CPUSS_SYSREQ_REG = CY_FLASH_CPUSS_REQ_START | CY_FLASH_API_OPCODE_LOAD;
 510:Generated_Source\PSoC4/CyFlash.c ****         CY_NOP;
 511:Generated_Source\PSoC4/CyFlash.c ****         retValue = CY_FLASH_API_RETURN;
 512:Generated_Source\PSoC4/CyFlash.c **** 
 513:Generated_Source\PSoC4/CyFlash.c ****         if(retValue == CY_SYS_FLASH_SUCCESS)
 514:Generated_Source\PSoC4/CyFlash.c ****         {
 515:Generated_Source\PSoC4/CyFlash.c ****             /***************************************************************
 516:Generated_Source\PSoC4/CyFlash.c ****             * Mask all the exceptions to guarantee that Flash write will
 517:Generated_Source\PSoC4/CyFlash.c ****             * occur in the atomic way. It will not affect system call
 518:Generated_Source\PSoC4/CyFlash.c ****             * execution (flash row write) since it is executed in the NMI
 519:Generated_Source\PSoC4/CyFlash.c ****             * context.
 520:Generated_Source\PSoC4/CyFlash.c ****             ***************************************************************/
 521:Generated_Source\PSoC4/CyFlash.c ****             interruptState = CyEnterCriticalSection();
 522:Generated_Source\PSoC4/CyFlash.c **** 
 523:Generated_Source\PSoC4/CyFlash.c ****             clkCnfRetValue = CySysFlashClockBackup();
 524:Generated_Source\PSoC4/CyFlash.c **** 
 525:Generated_Source\PSoC4/CyFlash.c ****         #if(CY_IP_SPCIF_SYNCHRONOUS)
 526:Generated_Source\PSoC4/CyFlash.c ****             if(clkCnfRetValue == CY_SYS_FLASH_SUCCESS)
 527:Generated_Source\PSoC4/CyFlash.c ****             {
 528:Generated_Source\PSoC4/CyFlash.c ****                 retValue = CySysFlashClockConfig();
 529:Generated_Source\PSoC4/CyFlash.c ****             }
 530:Generated_Source\PSoC4/CyFlash.c ****         #endif  /* (CY_IP_SPCIF_SYNCHRONOUS) */
 531:Generated_Source\PSoC4/CyFlash.c **** 
 532:Generated_Source\PSoC4/CyFlash.c ****             if(retValue == CY_SYS_FLASH_SUCCESS)
 533:Generated_Source\PSoC4/CyFlash.c ****             {
 534:Generated_Source\PSoC4/CyFlash.c ****                 /* Write User Sflash Row */
 535:Generated_Source\PSoC4/CyFlash.c ****                 parameters[0u]  = (uint32) (((uint32) CY_FLASH_KEY_TWO(CY_FLASH_API_OPCODE_WRITE_SF
 536:Generated_Source\PSoC4/CyFlash.c ****                 parameters[1u] = (uint32) rowNum;
 537:Generated_Source\PSoC4/CyFlash.c **** 
 538:Generated_Source\PSoC4/CyFlash.c ****                 CY_FLASH_CPUSS_SYSARG_REG = (uint32) &parameters[0u];
 539:Generated_Source\PSoC4/CyFlash.c ****                 CY_FLASH_CPUSS_SYSREQ_REG = CY_FLASH_CPUSS_REQ_START | CY_FLASH_API_OPCODE_WRITE_SF
 540:Generated_Source\PSoC4/CyFlash.c ****                 CY_NOP;
 541:Generated_Source\PSoC4/CyFlash.c ****                 retValue = CY_FLASH_API_RETURN;
 542:Generated_Source\PSoC4/CyFlash.c ****             }
 543:Generated_Source\PSoC4/CyFlash.c **** 
 544:Generated_Source\PSoC4/CyFlash.c ****             if(clkCnfRetValue == CY_SYS_FLASH_SUCCESS)
ARM GAS  C:\Users\ADEFIR~1\AppData\Local\Temp\ccDhNnbL.s 			page 11


 545:Generated_Source\PSoC4/CyFlash.c ****             {
 546:Generated_Source\PSoC4/CyFlash.c ****                 clkCnfRetValue = CySysFlashClockRestore();
 547:Generated_Source\PSoC4/CyFlash.c ****             }
 548:Generated_Source\PSoC4/CyFlash.c ****             CyExitCriticalSection(interruptState);
 549:Generated_Source\PSoC4/CyFlash.c ****         }
 550:Generated_Source\PSoC4/CyFlash.c ****     }
 551:Generated_Source\PSoC4/CyFlash.c ****     else
 552:Generated_Source\PSoC4/CyFlash.c ****     {
 553:Generated_Source\PSoC4/CyFlash.c ****         retValue = CY_SYS_FLASH_INVALID_ADDR;
 554:Generated_Source\PSoC4/CyFlash.c ****     }
 555:Generated_Source\PSoC4/CyFlash.c **** 
 556:Generated_Source\PSoC4/CyFlash.c ****     return (retValue);
 557:Generated_Source\PSoC4/CyFlash.c **** }
 558:Generated_Source\PSoC4/CyFlash.c **** #endif /* (CY_SFLASH_XTRA_ROWS) */
 559:Generated_Source\PSoC4/CyFlash.c **** 
 560:Generated_Source\PSoC4/CyFlash.c **** 
 561:Generated_Source\PSoC4/CyFlash.c **** /*******************************************************************************
 562:Generated_Source\PSoC4/CyFlash.c **** * Function Name: CySysFlashClockBackup
 563:Generated_Source\PSoC4/CyFlash.c **** ****************************************************************************//**
 564:Generated_Source\PSoC4/CyFlash.c **** *
 565:Generated_Source\PSoC4/CyFlash.c **** * Backups the device clock configuration.
 566:Generated_Source\PSoC4/CyFlash.c **** *
 567:Generated_Source\PSoC4/CyFlash.c **** * \return The same as \ref CySysFlashWriteRow().
 568:Generated_Source\PSoC4/CyFlash.c **** *
 569:Generated_Source\PSoC4/CyFlash.c **** *******************************************************************************/
 570:Generated_Source\PSoC4/CyFlash.c **** static cystatus CySysFlashClockBackup(void)
 571:Generated_Source\PSoC4/CyFlash.c **** {
  27              		.loc 1 571 0
  28              		.cfi_startproc
  29              		@ args = 0, pretend = 0, frame = 8
  30              		@ frame_needed = 0, uses_anonymous_args = 0
  31              		@ link register save eliminated.
  32 0000 82B0     		sub	sp, sp, #8
  33              		.cfi_def_cfa_offset 8
  34              	.LVL0:
 572:Generated_Source\PSoC4/CyFlash.c ****     cystatus retValue = CY_SYS_FLASH_SUCCESS;
 573:Generated_Source\PSoC4/CyFlash.c **** #if(!CY_IP_FM)
 574:Generated_Source\PSoC4/CyFlash.c ****     #if !(CY_PSOC4_4000)
 575:Generated_Source\PSoC4/CyFlash.c ****         #if (CY_IP_SPCIF_SYNCHRONOUS)
 576:Generated_Source\PSoC4/CyFlash.c ****             volatile uint32   parameters[2u];
 577:Generated_Source\PSoC4/CyFlash.c ****         #endif /* (CY_IP_SPCIF_SYNCHRONOUS) */
 578:Generated_Source\PSoC4/CyFlash.c ****     #endif  /* !(CY_PSOC4_4000) */
 579:Generated_Source\PSoC4/CyFlash.c **** #endif  /* (!CY_IP_FM) */
 580:Generated_Source\PSoC4/CyFlash.c **** 
 581:Generated_Source\PSoC4/CyFlash.c **** #if(CY_IP_FM)
 582:Generated_Source\PSoC4/CyFlash.c **** 
 583:Generated_Source\PSoC4/CyFlash.c ****     /***************************************************************
 584:Generated_Source\PSoC4/CyFlash.c ****     * Preserve IMO configuration that could be changed during
 585:Generated_Source\PSoC4/CyFlash.c ****     * system call execution (Cypress ID #150448).
 586:Generated_Source\PSoC4/CyFlash.c ****     ***************************************************************/
 587:Generated_Source\PSoC4/CyFlash.c ****     cySysFlashBackup.imoConfigReg = CY_SYS_CLK_IMO_CONFIG_REG;
 588:Generated_Source\PSoC4/CyFlash.c **** 
 589:Generated_Source\PSoC4/CyFlash.c **** #else   /* (CY_IP_FMLT) */
 590:Generated_Source\PSoC4/CyFlash.c **** 
 591:Generated_Source\PSoC4/CyFlash.c ****     #if (CY_PSOC4_4000)
 592:Generated_Source\PSoC4/CyFlash.c **** 
 593:Generated_Source\PSoC4/CyFlash.c ****         /***************************************************************************
ARM GAS  C:\Users\ADEFIR~1\AppData\Local\Temp\ccDhNnbL.s 			page 12


 594:Generated_Source\PSoC4/CyFlash.c ****         * Perform firmware clock settings backup for the PSOC4 4000 devices (the
 595:Generated_Source\PSoC4/CyFlash.c ****         * corresponding system call is not available).
 596:Generated_Source\PSoC4/CyFlash.c ****         ***************************************************************************/
 597:Generated_Source\PSoC4/CyFlash.c **** 
 598:Generated_Source\PSoC4/CyFlash.c ****         /***************************************************************************
 599:Generated_Source\PSoC4/CyFlash.c ****         * The registers listed below are modified by CySysFlashClockConfig().
 600:Generated_Source\PSoC4/CyFlash.c ****         *
 601:Generated_Source\PSoC4/CyFlash.c ****         * The registers to be saved:
 602:Generated_Source\PSoC4/CyFlash.c ****         * - CY_SYS_CLK_IMO_CONFIG_REG - IMO enable state.
 603:Generated_Source\PSoC4/CyFlash.c ****         * - CY_SYS_CLK_SELECT_REG     - HFCLK source, divider, pump source. Save
 604:Generated_Source\PSoC4/CyFlash.c ****         *                               entire register as it can be directly
 605:Generated_Source\PSoC4/CyFlash.c ****         *                               written on restore (no special
 606:Generated_Source\PSoC4/CyFlash.c ****         *                               requirements).
 607:Generated_Source\PSoC4/CyFlash.c ****         * - CY_SYS_CLK_IMO_SELECT_REG - Save IMO frequency.
 608:Generated_Source\PSoC4/CyFlash.c ****         *
 609:Generated_Source\PSoC4/CyFlash.c ****         * The registers not to be saved:
 610:Generated_Source\PSoC4/CyFlash.c ****         * - CY_SYS_CLK_IMO_TRIM1_REG  - No need to save. Function of frequency.
 611:Generated_Source\PSoC4/CyFlash.c ****         *                               Restored by CySysClkWriteImoFreq().
 612:Generated_Source\PSoC4/CyFlash.c ****         * - CY_SYS_CLK_IMO_TRIM3_REG  - No need to save. Function of frequency.
 613:Generated_Source\PSoC4/CyFlash.c ****         *                               Restored by CySysClkWriteImoFreq().
 614:Generated_Source\PSoC4/CyFlash.c ****         * - REG_CPUSS_FLASH_CTL       - Flash wait cycles. Unmodified due to system
 615:Generated_Source\PSoC4/CyFlash.c ****         *                               clock 16 MHz limit.
 616:Generated_Source\PSoC4/CyFlash.c ****         ***************************************************************************/
 617:Generated_Source\PSoC4/CyFlash.c **** 
 618:Generated_Source\PSoC4/CyFlash.c ****         cySysFlashBackup.clkSelectReg = CY_SYS_CLK_SELECT_REG;
 619:Generated_Source\PSoC4/CyFlash.c ****         cySysFlashBackup.clkImoEna    = CY_SYS_CLK_IMO_CONFIG_REG & CY_SYS_CLK_IMO_CONFIG_ENABLE;
 620:Generated_Source\PSoC4/CyFlash.c ****         cySysFlashBackup.clkImoFreq   = CY_SYS_CLK_IMO_MIN_FREQ_MHZ + (CY_SYS_CLK_IMO_SELECT_REG <<
 621:Generated_Source\PSoC4/CyFlash.c **** 
 622:Generated_Source\PSoC4/CyFlash.c ****     #else
 623:Generated_Source\PSoC4/CyFlash.c **** 
 624:Generated_Source\PSoC4/CyFlash.c ****         #if (CY_IP_SPCIF_SYNCHRONOUS)
 625:Generated_Source\PSoC4/CyFlash.c ****             /* FM-Lite Clock Backup System Call */
 626:Generated_Source\PSoC4/CyFlash.c ****             parameters[0u] =
  35              		.loc 1 626 0
  36 0002 134B     		ldr	r3, .L5
  37 0004 0093     		str	r3, [sp]
 627:Generated_Source\PSoC4/CyFlash.c ****                 (uint32) ((CY_FLASH_KEY_TWO(CY_FLASH_API_OPCODE_CLK_BACKUP) <<  CY_FLASH_PARAM_KEY_
 628:Generated_Source\PSoC4/CyFlash.c ****                             CY_FLASH_KEY_ONE);
 629:Generated_Source\PSoC4/CyFlash.c ****             parameters[1u] = (uint32) &cySysFlashBackup.clockSettings[0u];
  38              		.loc 1 629 0
  39 0006 134B     		ldr	r3, .L5+4
  40 0008 0193     		str	r3, [sp, #4]
 630:Generated_Source\PSoC4/CyFlash.c ****             CY_FLASH_CPUSS_SYSARG_REG = (uint32) &parameters[0u];
  41              		.loc 1 630 0
  42 000a 134B     		ldr	r3, .L5+8
  43 000c 6A46     		mov	r2, sp
  44 000e 1A60     		str	r2, [r3]
 631:Generated_Source\PSoC4/CyFlash.c ****             CY_FLASH_CPUSS_SYSREQ_REG = CY_FLASH_CPUSS_REQ_START | CY_FLASH_API_OPCODE_CLK_BACKUP;
  45              		.loc 1 631 0
  46 0010 1249     		ldr	r1, .L5+12
  47 0012 134A     		ldr	r2, .L5+16
  48 0014 1160     		str	r1, [r2]
 632:Generated_Source\PSoC4/CyFlash.c ****             CY_NOP;
  49              		.loc 1 632 0
  50              		.syntax divided
  51              	@ 632 "Generated_Source\PSoC4\CyFlash.c" 1
  52 0016 C046     		NOP
ARM GAS  C:\Users\ADEFIR~1\AppData\Local\Temp\ccDhNnbL.s 			page 13


  53              	
  54              	@ 0 "" 2
 633:Generated_Source\PSoC4/CyFlash.c ****             retValue = CY_FLASH_API_RETURN;
  55              		.loc 1 633 0
  56              		.thumb
  57              		.syntax unified
  58 0018 1B68     		ldr	r3, [r3]
  59 001a 1B0F     		lsrs	r3, r3, #28
  60 001c 1B07     		lsls	r3, r3, #28
  61 001e F022     		movs	r2, #240
  62 0020 1206     		lsls	r2, r2, #24
  63 0022 9342     		cmp	r3, r2
  64 0024 04D1     		bne	.L2
  65              		.loc 1 633 0 is_stmt 0 discriminator 1
  66 0026 0C4B     		ldr	r3, .L5+8
  67 0028 1B68     		ldr	r3, [r3]
  68 002a FF20     		movs	r0, #255
  69 002c 1840     		ands	r0, r3
  70 002e 0DE0     		b	.L3
  71              	.L2:
  72              		.loc 1 633 0 discriminator 2
  73 0030 094B     		ldr	r3, .L5+8
  74 0032 1B68     		ldr	r3, [r3]
  75 0034 1B0F     		lsrs	r3, r3, #28
  76 0036 1B07     		lsls	r3, r3, #28
  77 0038 A022     		movs	r2, #160
  78 003a 1206     		lsls	r2, r2, #24
  79 003c 9342     		cmp	r3, r2
  80 003e 04D0     		beq	.L4
  81              		.loc 1 633 0 discriminator 4
  82 0040 054B     		ldr	r3, .L5+8
  83 0042 1B68     		ldr	r3, [r3]
  84 0044 FF20     		movs	r0, #255
  85 0046 1840     		ands	r0, r3
  86 0048 00E0     		b	.L3
  87              	.L4:
  88              		.loc 1 633 0
  89 004a 0020     		movs	r0, #0
  90              	.L3:
  91              	.LVL1:
 634:Generated_Source\PSoC4/CyFlash.c ****         #endif /* (CY_IP_SPCIF_SYNCHRONOUS) */
 635:Generated_Source\PSoC4/CyFlash.c **** 
 636:Generated_Source\PSoC4/CyFlash.c ****     #endif  /* (CY_PSOC4_4000) */
 637:Generated_Source\PSoC4/CyFlash.c **** 
 638:Generated_Source\PSoC4/CyFlash.c **** #endif  /* (CY_IP_FM) */
 639:Generated_Source\PSoC4/CyFlash.c **** 
 640:Generated_Source\PSoC4/CyFlash.c ****     return (retValue);
 641:Generated_Source\PSoC4/CyFlash.c **** }
  92              		.loc 1 641 0 is_stmt 1 discriminator 8
  93 004c 02B0     		add	sp, sp, #8
  94              		@ sp needed
  95 004e 7047     		bx	lr
  96              	.L6:
  97              		.align	2
  98              	.L5:
  99 0050 B6E90000 		.word	59830
 100 0054 00000000 		.word	.LANCHOR0
ARM GAS  C:\Users\ADEFIR~1\AppData\Local\Temp\ccDhNnbL.s 			page 14


 101 0058 08001040 		.word	1074790408
 102 005c 16000080 		.word	-2147483626
 103 0060 04001040 		.word	1074790404
 104              		.cfi_endproc
 105              	.LFE4:
 106              		.size	CySysFlashClockBackup, .-CySysFlashClockBackup
 107              		.section	.text.CySysFlashClockConfig,"ax",%progbits
 108              		.align	2
 109              		.code	16
 110              		.thumb_func
 111              		.type	CySysFlashClockConfig, %function
 112              	CySysFlashClockConfig:
 113              	.LFB5:
 642:Generated_Source\PSoC4/CyFlash.c **** 
 643:Generated_Source\PSoC4/CyFlash.c **** 
 644:Generated_Source\PSoC4/CyFlash.c **** #if(CY_IP_SPCIF_SYNCHRONOUS)
 645:Generated_Source\PSoC4/CyFlash.c **** /*******************************************************************************
 646:Generated_Source\PSoC4/CyFlash.c **** * Function Name: CySysFlashClockConfig
 647:Generated_Source\PSoC4/CyFlash.c **** ****************************************************************************//**
 648:Generated_Source\PSoC4/CyFlash.c **** *
 649:Generated_Source\PSoC4/CyFlash.c **** * Configures the device clocks for the flash writing.
 650:Generated_Source\PSoC4/CyFlash.c **** *
 651:Generated_Source\PSoC4/CyFlash.c **** * \return The same as \ref CySysFlashWriteRow().
 652:Generated_Source\PSoC4/CyFlash.c **** *
 653:Generated_Source\PSoC4/CyFlash.c **** *******************************************************************************/
 654:Generated_Source\PSoC4/CyFlash.c **** static cystatus CySysFlashClockConfig(void)
 655:Generated_Source\PSoC4/CyFlash.c **** {
 114              		.loc 1 655 0
 115              		.cfi_startproc
 116              		@ args = 0, pretend = 0, frame = 0
 117              		@ frame_needed = 0, uses_anonymous_args = 0
 118              		@ link register save eliminated.
 119              	.LVL2:
 656:Generated_Source\PSoC4/CyFlash.c ****     cystatus retValue = CY_SYS_FLASH_SUCCESS;
 657:Generated_Source\PSoC4/CyFlash.c **** 
 658:Generated_Source\PSoC4/CyFlash.c ****     /***************************************************************************
 659:Generated_Source\PSoC4/CyFlash.c ****     * The FM-Lite IP uses the IMO at 48MHz for the pump clock and SPC timer
 660:Generated_Source\PSoC4/CyFlash.c ****     * clock. The PUMP_SEL and HF clock must be set to IMO before calling Flash
 661:Generated_Source\PSoC4/CyFlash.c ****     * write or erase operation.
 662:Generated_Source\PSoC4/CyFlash.c ****     ***************************************************************************/
 663:Generated_Source\PSoC4/CyFlash.c **** #if (CY_PSOC4_4000)
 664:Generated_Source\PSoC4/CyFlash.c **** 
 665:Generated_Source\PSoC4/CyFlash.c ****     /***************************************************************************
 666:Generated_Source\PSoC4/CyFlash.c ****     * Perform firmware clock settings setup for the PSOC4 4000 devices (the
 667:Generated_Source\PSoC4/CyFlash.c ****     * corresponding system call is not reliable):
 668:Generated_Source\PSoC4/CyFlash.c ****     * - The IMO frequency should be 48 MHz
 669:Generated_Source\PSoC4/CyFlash.c ****     * - The IMO should be source for the HFCLK
 670:Generated_Source\PSoC4/CyFlash.c ****     * - The IMO should be the source for the charge pump clock
 671:Generated_Source\PSoC4/CyFlash.c ****     *
 672:Generated_Source\PSoC4/CyFlash.c ****     * Note The structure members used below are initialized by
 673:Generated_Source\PSoC4/CyFlash.c ****     * the CySysFlashClockBackup() function.
 674:Generated_Source\PSoC4/CyFlash.c ****     ***************************************************************************/
 675:Generated_Source\PSoC4/CyFlash.c ****     if ((cySysFlashBackup.clkImoFreq != 48u) ||
 676:Generated_Source\PSoC4/CyFlash.c ****         ((cySysFlashBackup.clkSelectReg & CY_SYS_CLK_SELECT_DIRECT_SEL_MASK) != CY_SYS_CLK_HFCLK_IM
 677:Generated_Source\PSoC4/CyFlash.c ****         (((cySysFlashBackup.clkSelectReg >> CY_SYS_CLK_SELECT_PUMP_SEL_SHIFT) & CY_SYS_CLK_SELECT_P
 678:Generated_Source\PSoC4/CyFlash.c ****             CY_SYS_CLK_SELECT_PUMP_SEL_IMO))
 679:Generated_Source\PSoC4/CyFlash.c ****     {
ARM GAS  C:\Users\ADEFIR~1\AppData\Local\Temp\ccDhNnbL.s 			page 15


 680:Generated_Source\PSoC4/CyFlash.c ****         /***********************************************************************
 681:Generated_Source\PSoC4/CyFlash.c ****          Set HFCLK divider to divide-by-4 to ensure that System clock frequency
 682:Generated_Source\PSoC4/CyFlash.c ****         * is within the valid limit (16 MHz for the PSoC4 4000).
 683:Generated_Source\PSoC4/CyFlash.c ****         ***********************************************************************/
 684:Generated_Source\PSoC4/CyFlash.c ****         CySysClkWriteHfclkDiv(CY_SYS_CLK_HFCLK_DIV_4);
 685:Generated_Source\PSoC4/CyFlash.c **** 
 686:Generated_Source\PSoC4/CyFlash.c ****         /* The IMO frequency should be 48 MHz */
 687:Generated_Source\PSoC4/CyFlash.c ****         if (cySysFlashBackup.clkImoFreq != 48u)
 688:Generated_Source\PSoC4/CyFlash.c ****         {
 689:Generated_Source\PSoC4/CyFlash.c ****             CySysClkWriteImoFreq(48u);
 690:Generated_Source\PSoC4/CyFlash.c ****         }
 691:Generated_Source\PSoC4/CyFlash.c ****         CySysClkImoStart();
 692:Generated_Source\PSoC4/CyFlash.c **** 
 693:Generated_Source\PSoC4/CyFlash.c ****         /* The IMO should be source for the HFCLK */
 694:Generated_Source\PSoC4/CyFlash.c ****         CySysClkWriteHfclkDirect(CY_SYS_CLK_HFCLK_IMO);
 695:Generated_Source\PSoC4/CyFlash.c **** 
 696:Generated_Source\PSoC4/CyFlash.c ****         /* The IMO should be the source for the charge pump clock */
 697:Generated_Source\PSoC4/CyFlash.c ****         CY_SYS_CLK_SELECT_REG =  (CY_SYS_CLK_SELECT_REG &
 698:Generated_Source\PSoC4/CyFlash.c ****             ((uint32)~(uint32)(CY_SYS_CLK_SELECT_PUMP_SEL_MASK << CY_SYS_CLK_SELECT_PUMP_SEL_SHIFT)
 699:Generated_Source\PSoC4/CyFlash.c ****             ((uint32)((uint32)1u << CY_SYS_CLK_SELECT_PUMP_SEL_SHIFT));
 700:Generated_Source\PSoC4/CyFlash.c ****     }
 701:Generated_Source\PSoC4/CyFlash.c **** 
 702:Generated_Source\PSoC4/CyFlash.c **** #else
 703:Generated_Source\PSoC4/CyFlash.c **** 
 704:Generated_Source\PSoC4/CyFlash.c ****     /* FM-Lite Clock Configuration */
 705:Generated_Source\PSoC4/CyFlash.c ****     CY_FLASH_CPUSS_SYSARG_REG =
 120              		.loc 1 705 0
 121 0000 104B     		ldr	r3, .L11
 122 0002 114A     		ldr	r2, .L11+4
 123 0004 1A60     		str	r2, [r3]
 706:Generated_Source\PSoC4/CyFlash.c ****         (uint32) ((CY_FLASH_KEY_TWO(CY_FLASH_API_OPCODE_CLK_CONFIG) <<  CY_FLASH_PARAM_KEY_TWO_OFFS
 707:Generated_Source\PSoC4/CyFlash.c ****                     CY_FLASH_KEY_ONE);
 708:Generated_Source\PSoC4/CyFlash.c ****     CY_FLASH_CPUSS_SYSREQ_REG = CY_FLASH_CPUSS_REQ_START | CY_FLASH_API_OPCODE_CLK_CONFIG;
 124              		.loc 1 708 0
 125 0006 1149     		ldr	r1, .L11+8
 126 0008 114A     		ldr	r2, .L11+12
 127 000a 1160     		str	r1, [r2]
 709:Generated_Source\PSoC4/CyFlash.c ****     CY_NOP;
 128              		.loc 1 709 0
 129              		.syntax divided
 130              	@ 709 "Generated_Source\PSoC4\CyFlash.c" 1
 131 000c C046     		NOP
 132              	
 133              	@ 0 "" 2
 710:Generated_Source\PSoC4/CyFlash.c ****     retValue = CY_FLASH_API_RETURN;
 134              		.loc 1 710 0
 135              		.thumb
 136              		.syntax unified
 137 000e 1B68     		ldr	r3, [r3]
 138 0010 1B0F     		lsrs	r3, r3, #28
 139 0012 1B07     		lsls	r3, r3, #28
 140 0014 F022     		movs	r2, #240
 141 0016 1206     		lsls	r2, r2, #24
 142 0018 9342     		cmp	r3, r2
 143 001a 04D1     		bne	.L8
 144              		.loc 1 710 0 is_stmt 0 discriminator 1
 145 001c 094B     		ldr	r3, .L11
ARM GAS  C:\Users\ADEFIR~1\AppData\Local\Temp\ccDhNnbL.s 			page 16


 146 001e 1B68     		ldr	r3, [r3]
 147 0020 FF20     		movs	r0, #255
 148 0022 1840     		ands	r0, r3
 149 0024 0DE0     		b	.L9
 150              	.L8:
 151              		.loc 1 710 0 discriminator 2
 152 0026 074B     		ldr	r3, .L11
 153 0028 1B68     		ldr	r3, [r3]
 154 002a 1B0F     		lsrs	r3, r3, #28
 155 002c 1B07     		lsls	r3, r3, #28
 156 002e A022     		movs	r2, #160
 157 0030 1206     		lsls	r2, r2, #24
 158 0032 9342     		cmp	r3, r2
 159 0034 04D0     		beq	.L10
 160              		.loc 1 710 0 discriminator 4
 161 0036 034B     		ldr	r3, .L11
 162 0038 1B68     		ldr	r3, [r3]
 163 003a FF20     		movs	r0, #255
 164 003c 1840     		ands	r0, r3
 165 003e 00E0     		b	.L9
 166              	.L10:
 167              		.loc 1 710 0
 168 0040 0020     		movs	r0, #0
 169              	.L9:
 170              	.LVL3:
 711:Generated_Source\PSoC4/CyFlash.c **** 
 712:Generated_Source\PSoC4/CyFlash.c **** #endif  /* (CY_PSOC4_4000) */
 713:Generated_Source\PSoC4/CyFlash.c **** 
 714:Generated_Source\PSoC4/CyFlash.c ****     return (retValue);
 715:Generated_Source\PSoC4/CyFlash.c **** }
 171              		.loc 1 715 0 is_stmt 1 discriminator 8
 172              		@ sp needed
 173 0042 7047     		bx	lr
 174              	.L12:
 175              		.align	2
 176              	.L11:
 177 0044 08001040 		.word	1074790408
 178 0048 B6E80000 		.word	59574
 179 004c 15000080 		.word	-2147483627
 180 0050 04001040 		.word	1074790404
 181              		.cfi_endproc
 182              	.LFE5:
 183              		.size	CySysFlashClockConfig, .-CySysFlashClockConfig
 184              		.section	.text.CySysFlashClockRestore,"ax",%progbits
 185              		.align	2
 186              		.code	16
 187              		.thumb_func
 188              		.type	CySysFlashClockRestore, %function
 189              	CySysFlashClockRestore:
 190              	.LFB6:
 716:Generated_Source\PSoC4/CyFlash.c **** #endif  /* (CY_IP_SPCIF_SYNCHRONOUS) */
 717:Generated_Source\PSoC4/CyFlash.c **** 
 718:Generated_Source\PSoC4/CyFlash.c **** 
 719:Generated_Source\PSoC4/CyFlash.c **** /*******************************************************************************
 720:Generated_Source\PSoC4/CyFlash.c **** * Function Name: CySysFlashClockRestore
 721:Generated_Source\PSoC4/CyFlash.c **** ****************************************************************************//**
 722:Generated_Source\PSoC4/CyFlash.c **** *
ARM GAS  C:\Users\ADEFIR~1\AppData\Local\Temp\ccDhNnbL.s 			page 17


 723:Generated_Source\PSoC4/CyFlash.c **** * Restores the device clock configuration.
 724:Generated_Source\PSoC4/CyFlash.c **** *
 725:Generated_Source\PSoC4/CyFlash.c **** * \return The same as \ref CySysFlashWriteRow().
 726:Generated_Source\PSoC4/CyFlash.c **** *
 727:Generated_Source\PSoC4/CyFlash.c **** *******************************************************************************/
 728:Generated_Source\PSoC4/CyFlash.c **** static cystatus CySysFlashClockRestore(void)
 729:Generated_Source\PSoC4/CyFlash.c **** {
 191              		.loc 1 729 0
 192              		.cfi_startproc
 193              		@ args = 0, pretend = 0, frame = 8
 194              		@ frame_needed = 0, uses_anonymous_args = 0
 195              		@ link register save eliminated.
 196 0000 82B0     		sub	sp, sp, #8
 197              		.cfi_def_cfa_offset 8
 198              	.LVL4:
 730:Generated_Source\PSoC4/CyFlash.c ****     cystatus retValue = CY_SYS_FLASH_SUCCESS;
 731:Generated_Source\PSoC4/CyFlash.c **** #if(!CY_IP_FM)
 732:Generated_Source\PSoC4/CyFlash.c ****     #if !(CY_PSOC4_4000)
 733:Generated_Source\PSoC4/CyFlash.c ****         #if (CY_IP_SPCIF_SYNCHRONOUS)
 734:Generated_Source\PSoC4/CyFlash.c ****             volatile uint32   parameters[2u];
 735:Generated_Source\PSoC4/CyFlash.c ****         #endif /* (CY_IP_SPCIF_SYNCHRONOUS) */
 736:Generated_Source\PSoC4/CyFlash.c ****     #endif  /* !(CY_PSOC4_4000) */
 737:Generated_Source\PSoC4/CyFlash.c **** #endif  /* (!CY_IP_FM) */
 738:Generated_Source\PSoC4/CyFlash.c **** 
 739:Generated_Source\PSoC4/CyFlash.c **** #if(CY_IP_FM)
 740:Generated_Source\PSoC4/CyFlash.c **** 
 741:Generated_Source\PSoC4/CyFlash.c ****     /***************************************************************
 742:Generated_Source\PSoC4/CyFlash.c ****     * Restore IMO configuration that could be changed during
 743:Generated_Source\PSoC4/CyFlash.c ****     * system call execution (Cypress ID #150448).
 744:Generated_Source\PSoC4/CyFlash.c ****     ***************************************************************/
 745:Generated_Source\PSoC4/CyFlash.c ****     CY_SYS_CLK_IMO_CONFIG_REG = cySysFlashBackup.imoConfigReg;
 746:Generated_Source\PSoC4/CyFlash.c **** 
 747:Generated_Source\PSoC4/CyFlash.c **** #else
 748:Generated_Source\PSoC4/CyFlash.c **** 
 749:Generated_Source\PSoC4/CyFlash.c ****     #if (CY_PSOC4_4000)
 750:Generated_Source\PSoC4/CyFlash.c **** 
 751:Generated_Source\PSoC4/CyFlash.c ****         /***************************************************************************
 752:Generated_Source\PSoC4/CyFlash.c ****         * Perform firmware clock settings restore for the PSOC4 4000 devices (the
 753:Generated_Source\PSoC4/CyFlash.c ****         * corresponding system call is not available).
 754:Generated_Source\PSoC4/CyFlash.c ****         ***************************************************************************/
 755:Generated_Source\PSoC4/CyFlash.c **** 
 756:Generated_Source\PSoC4/CyFlash.c ****         /* Restore clock settings */
 757:Generated_Source\PSoC4/CyFlash.c ****         if ((cySysFlashBackup.clkImoFreq != 48u) ||
 758:Generated_Source\PSoC4/CyFlash.c ****             ((cySysFlashBackup.clkSelectReg & CY_SYS_CLK_SELECT_DIRECT_SEL_MASK) != CY_SYS_CLK_HFCL
 759:Generated_Source\PSoC4/CyFlash.c ****             (((cySysFlashBackup.clkSelectReg >> CY_SYS_CLK_SELECT_PUMP_SEL_SHIFT) & CY_SYS_CLK_SELE
 760:Generated_Source\PSoC4/CyFlash.c ****                 CY_SYS_CLK_SELECT_PUMP_SEL_IMO))
 761:Generated_Source\PSoC4/CyFlash.c ****         {
 762:Generated_Source\PSoC4/CyFlash.c ****             /* Restore IMO frequency if needed */
 763:Generated_Source\PSoC4/CyFlash.c ****             if (cySysFlashBackup.clkImoFreq != 48u)
 764:Generated_Source\PSoC4/CyFlash.c ****             {
 765:Generated_Source\PSoC4/CyFlash.c ****                 CySysClkWriteImoFreq(cySysFlashBackup.clkImoFreq);
 766:Generated_Source\PSoC4/CyFlash.c ****             }
 767:Generated_Source\PSoC4/CyFlash.c **** 
 768:Generated_Source\PSoC4/CyFlash.c ****             /* Restore HFCLK clock source */
 769:Generated_Source\PSoC4/CyFlash.c ****             CySysClkWriteHfclkDirect(cySysFlashBackup.clkSelectReg & CY_SYS_CLK_SELECT_DIRECT_SEL_M
 770:Generated_Source\PSoC4/CyFlash.c **** 
 771:Generated_Source\PSoC4/CyFlash.c ****             /* Restore HFCLK divider and source for pump  */
ARM GAS  C:\Users\ADEFIR~1\AppData\Local\Temp\ccDhNnbL.s 			page 18


 772:Generated_Source\PSoC4/CyFlash.c ****             CY_SYS_CLK_SELECT_REG = cySysFlashBackup.clkSelectReg;
 773:Generated_Source\PSoC4/CyFlash.c **** 
 774:Generated_Source\PSoC4/CyFlash.c ****             /* Stop IMO if needed */
 775:Generated_Source\PSoC4/CyFlash.c ****             if (0u == cySysFlashBackup.clkImoEna)
 776:Generated_Source\PSoC4/CyFlash.c ****             {
 777:Generated_Source\PSoC4/CyFlash.c ****                 CySysClkImoStop();
 778:Generated_Source\PSoC4/CyFlash.c ****             }
 779:Generated_Source\PSoC4/CyFlash.c ****         }
 780:Generated_Source\PSoC4/CyFlash.c **** 
 781:Generated_Source\PSoC4/CyFlash.c ****     #else
 782:Generated_Source\PSoC4/CyFlash.c **** 
 783:Generated_Source\PSoC4/CyFlash.c ****         #if (CY_IP_SPCIF_SYNCHRONOUS)
 784:Generated_Source\PSoC4/CyFlash.c ****             /* FM-Lite Clock Restore */
 785:Generated_Source\PSoC4/CyFlash.c ****             parameters[0u] =
 199              		.loc 1 785 0
 200 0002 134B     		ldr	r3, .L17
 201 0004 0093     		str	r3, [sp]
 786:Generated_Source\PSoC4/CyFlash.c ****                 (uint32) ((CY_FLASH_KEY_TWO(CY_FLASH_API_OPCODE_CLK_RESTORE) <<  CY_FLASH_PARAM_KEY
 787:Generated_Source\PSoC4/CyFlash.c ****                             CY_FLASH_KEY_ONE);
 788:Generated_Source\PSoC4/CyFlash.c ****             parameters[1u] = (uint32) &cySysFlashBackup.clockSettings[0u];
 202              		.loc 1 788 0
 203 0006 134B     		ldr	r3, .L17+4
 204 0008 0193     		str	r3, [sp, #4]
 789:Generated_Source\PSoC4/CyFlash.c ****             CY_FLASH_CPUSS_SYSARG_REG = (uint32) &parameters[0u];
 205              		.loc 1 789 0
 206 000a 134B     		ldr	r3, .L17+8
 207 000c 6A46     		mov	r2, sp
 208 000e 1A60     		str	r2, [r3]
 790:Generated_Source\PSoC4/CyFlash.c ****             CY_FLASH_CPUSS_SYSREQ_REG = CY_FLASH_CPUSS_REQ_START | CY_FLASH_API_OPCODE_CLK_RESTORE;
 209              		.loc 1 790 0
 210 0010 1249     		ldr	r1, .L17+12
 211 0012 134A     		ldr	r2, .L17+16
 212 0014 1160     		str	r1, [r2]
 791:Generated_Source\PSoC4/CyFlash.c ****             CY_NOP;
 213              		.loc 1 791 0
 214              		.syntax divided
 215              	@ 791 "Generated_Source\PSoC4\CyFlash.c" 1
 216 0016 C046     		NOP
 217              	
 218              	@ 0 "" 2
 792:Generated_Source\PSoC4/CyFlash.c ****             retValue = CY_FLASH_API_RETURN;
 219              		.loc 1 792 0
 220              		.thumb
 221              		.syntax unified
 222 0018 1B68     		ldr	r3, [r3]
 223 001a 1B0F     		lsrs	r3, r3, #28
 224 001c 1B07     		lsls	r3, r3, #28
 225 001e F022     		movs	r2, #240
 226 0020 1206     		lsls	r2, r2, #24
 227 0022 9342     		cmp	r3, r2
 228 0024 04D1     		bne	.L14
 229              		.loc 1 792 0 is_stmt 0 discriminator 1
 230 0026 0C4B     		ldr	r3, .L17+8
 231 0028 1B68     		ldr	r3, [r3]
 232 002a FF20     		movs	r0, #255
 233 002c 1840     		ands	r0, r3
 234 002e 0DE0     		b	.L15
ARM GAS  C:\Users\ADEFIR~1\AppData\Local\Temp\ccDhNnbL.s 			page 19


 235              	.L14:
 236              		.loc 1 792 0 discriminator 2
 237 0030 094B     		ldr	r3, .L17+8
 238 0032 1B68     		ldr	r3, [r3]
 239 0034 1B0F     		lsrs	r3, r3, #28
 240 0036 1B07     		lsls	r3, r3, #28
 241 0038 A022     		movs	r2, #160
 242 003a 1206     		lsls	r2, r2, #24
 243 003c 9342     		cmp	r3, r2
 244 003e 04D0     		beq	.L16
 245              		.loc 1 792 0 discriminator 4
 246 0040 054B     		ldr	r3, .L17+8
 247 0042 1B68     		ldr	r3, [r3]
 248 0044 FF20     		movs	r0, #255
 249 0046 1840     		ands	r0, r3
 250 0048 00E0     		b	.L15
 251              	.L16:
 252              		.loc 1 792 0
 253 004a 0020     		movs	r0, #0
 254              	.L15:
 255              	.LVL5:
 793:Generated_Source\PSoC4/CyFlash.c ****         #endif /* (CY_IP_SPCIF_SYNCHRONOUS) */
 794:Generated_Source\PSoC4/CyFlash.c **** 
 795:Generated_Source\PSoC4/CyFlash.c ****     #endif  /* (CY_PSOC4_4000) */
 796:Generated_Source\PSoC4/CyFlash.c **** 
 797:Generated_Source\PSoC4/CyFlash.c **** #endif  /* (CY_IP_FM) */
 798:Generated_Source\PSoC4/CyFlash.c **** 
 799:Generated_Source\PSoC4/CyFlash.c ****     return (retValue);
 800:Generated_Source\PSoC4/CyFlash.c **** }
 256              		.loc 1 800 0 is_stmt 1 discriminator 8
 257 004c 02B0     		add	sp, sp, #8
 258              		@ sp needed
 259 004e 7047     		bx	lr
 260              	.L18:
 261              		.align	2
 262              	.L17:
 263 0050 B6EA0000 		.word	60086
 264 0054 00000000 		.word	.LANCHOR0
 265 0058 08001040 		.word	1074790408
 266 005c 17000080 		.word	-2147483625
 267 0060 04001040 		.word	1074790404
 268              		.cfi_endproc
 269              	.LFE6:
 270              		.size	CySysFlashClockRestore, .-CySysFlashClockRestore
 271              		.section	.text.CySysFlashWriteRow,"ax",%progbits
 272              		.align	2
 273              		.global	CySysFlashWriteRow
 274              		.code	16
 275              		.thumb_func
 276              		.type	CySysFlashWriteRow, %function
 277              	CySysFlashWriteRow:
 278              	.LFB1:
  82:Generated_Source\PSoC4/CyFlash.c ****     volatile uint32 retValue = CY_SYS_FLASH_SUCCESS;
 279              		.loc 1 82 0
 280              		.cfi_startproc
 281              		@ args = 0, pretend = 0, frame = 144
 282              		@ frame_needed = 0, uses_anonymous_args = 0
ARM GAS  C:\Users\ADEFIR~1\AppData\Local\Temp\ccDhNnbL.s 			page 20


 283              	.LVL6:
 284 0000 30B5     		push	{r4, r5, lr}
 285              		.cfi_def_cfa_offset 12
 286              		.cfi_offset 4, -12
 287              		.cfi_offset 5, -8
 288              		.cfi_offset 14, -4
 289 0002 A5B0     		sub	sp, sp, #148
 290              		.cfi_def_cfa_offset 160
 291 0004 0400     		movs	r4, r0
  83:Generated_Source\PSoC4/CyFlash.c ****     volatile uint32 clkCnfRetValue = CY_SYS_FLASH_SUCCESS;
 292              		.loc 1 83 0
 293 0006 0023     		movs	r3, #0
 294 0008 2393     		str	r3, [sp, #140]
  84:Generated_Source\PSoC4/CyFlash.c ****     volatile uint32 parameters[(CY_FLASH_SIZEOF_ROW + CY_FLASH_SRAM_ROM_DATA) / sizeof(uint32)];
 295              		.loc 1 84 0
 296 000a 2293     		str	r3, [sp, #136]
  97:Generated_Source\PSoC4/CyFlash.c ****     {
 297              		.loc 1 97 0
 298 000c FF28     		cmp	r0, #255
 299 000e 72D8     		bhi	.L20
  97:Generated_Source\PSoC4/CyFlash.c ****     {
 300              		.loc 1 97 0 is_stmt 0 discriminator 1
 301 0010 0029     		cmp	r1, #0
 302 0012 70D0     		beq	.L20
 100:Generated_Source\PSoC4/CyFlash.c **** 
 303              		.loc 1 100 0 is_stmt 1
 304 0014 8022     		movs	r2, #128
 305 0016 02A8     		add	r0, sp, #8
 306              	.LVL7:
 307 0018 FFF7FEFF 		bl	memcpy
 308              	.LVL8:
 124:Generated_Source\PSoC4/CyFlash.c ****                          (uint32) (CY_FLASH_PAGE_LATCH_START_ADDR             << CY_FLASH_PARAM_ADD
 309              		.loc 1 124 0
 310 001c 384B     		ldr	r3, .L30
 311 001e 0093     		str	r3, [sp]
 128:Generated_Source\PSoC4/CyFlash.c **** 
 312              		.loc 1 128 0
 313 0020 7F23     		movs	r3, #127
 314 0022 0193     		str	r3, [sp, #4]
 130:Generated_Source\PSoC4/CyFlash.c ****         CY_FLASH_CPUSS_SYSREQ_REG = CY_FLASH_CPUSS_REQ_START | CY_FLASH_API_OPCODE_LOAD;
 315              		.loc 1 130 0
 316 0024 374B     		ldr	r3, .L30+4
 317 0026 6A46     		mov	r2, sp
 318 0028 1A60     		str	r2, [r3]
 131:Generated_Source\PSoC4/CyFlash.c ****         CY_NOP;
 319              		.loc 1 131 0
 320 002a 3749     		ldr	r1, .L30+8
 321 002c 374A     		ldr	r2, .L30+12
 322 002e 1160     		str	r1, [r2]
 132:Generated_Source\PSoC4/CyFlash.c ****         retValue = CY_FLASH_API_RETURN;
 323              		.loc 1 132 0
 324              		.syntax divided
 325              	@ 132 "Generated_Source\PSoC4\CyFlash.c" 1
 326 0030 C046     		NOP
 327              	
 328              	@ 0 "" 2
 133:Generated_Source\PSoC4/CyFlash.c **** 
ARM GAS  C:\Users\ADEFIR~1\AppData\Local\Temp\ccDhNnbL.s 			page 21


 329              		.loc 1 133 0
 330              		.thumb
 331              		.syntax unified
 332 0032 1B68     		ldr	r3, [r3]
 333 0034 1B0F     		lsrs	r3, r3, #28
 334 0036 1B07     		lsls	r3, r3, #28
 335 0038 F022     		movs	r2, #240
 336 003a 1206     		lsls	r2, r2, #24
 337 003c 9342     		cmp	r3, r2
 338 003e 04D1     		bne	.L21
 133:Generated_Source\PSoC4/CyFlash.c **** 
 339              		.loc 1 133 0 is_stmt 0 discriminator 1
 340 0040 304B     		ldr	r3, .L30+4
 341 0042 1B68     		ldr	r3, [r3]
 342 0044 FF22     		movs	r2, #255
 343 0046 1340     		ands	r3, r2
 344 0048 0DE0     		b	.L22
 345              	.L21:
 133:Generated_Source\PSoC4/CyFlash.c **** 
 346              		.loc 1 133 0 discriminator 2
 347 004a 2E4B     		ldr	r3, .L30+4
 348 004c 1B68     		ldr	r3, [r3]
 349 004e 1B0F     		lsrs	r3, r3, #28
 350 0050 1B07     		lsls	r3, r3, #28
 351 0052 A022     		movs	r2, #160
 352 0054 1206     		lsls	r2, r2, #24
 353 0056 9342     		cmp	r3, r2
 354 0058 04D0     		beq	.L29
 133:Generated_Source\PSoC4/CyFlash.c **** 
 355              		.loc 1 133 0 discriminator 4
 356 005a 2A4B     		ldr	r3, .L30+4
 357 005c 1B68     		ldr	r3, [r3]
 358 005e FF22     		movs	r2, #255
 359 0060 1340     		ands	r3, r2
 360 0062 00E0     		b	.L22
 361              	.L29:
 133:Generated_Source\PSoC4/CyFlash.c **** 
 362              		.loc 1 133 0
 363 0064 0023     		movs	r3, #0
 364              	.L22:
 133:Generated_Source\PSoC4/CyFlash.c **** 
 365              		.loc 1 133 0 discriminator 8
 366 0066 2393     		str	r3, [sp, #140]
 135:Generated_Source\PSoC4/CyFlash.c ****         {
 367              		.loc 1 135 0 is_stmt 1 discriminator 8
 368 0068 239B     		ldr	r3, [sp, #140]
 369 006a 002B     		cmp	r3, #0
 370 006c 45D1     		bne	.L23
 143:Generated_Source\PSoC4/CyFlash.c **** 
 371              		.loc 1 143 0
 372 006e FFF7FEFF 		bl	CyEnterCriticalSection
 373              	.LVL9:
 374 0072 0500     		movs	r5, r0
 375              	.LVL10:
 145:Generated_Source\PSoC4/CyFlash.c **** 
 376              		.loc 1 145 0
 377 0074 FFF7FEFF 		bl	CySysFlashClockBackup
ARM GAS  C:\Users\ADEFIR~1\AppData\Local\Temp\ccDhNnbL.s 			page 22


 378              	.LVL11:
 379 0078 2290     		str	r0, [sp, #136]
 148:Generated_Source\PSoC4/CyFlash.c ****             {
 380              		.loc 1 148 0
 381 007a 229B     		ldr	r3, [sp, #136]
 382 007c 002B     		cmp	r3, #0
 383 007e 02D1     		bne	.L24
 150:Generated_Source\PSoC4/CyFlash.c ****             }
 384              		.loc 1 150 0
 385 0080 FFF7FEFF 		bl	CySysFlashClockConfig
 386              	.LVL12:
 387 0084 2390     		str	r0, [sp, #140]
 388              	.L24:
 154:Generated_Source\PSoC4/CyFlash.c ****             {
 389              		.loc 1 154 0
 390 0086 239B     		ldr	r3, [sp, #140]
 391 0088 002B     		cmp	r3, #0
 392 008a 25D1     		bne	.L25
 157:Generated_Source\PSoC4/CyFlash.c ****                 parameters[0u] |= (uint32)(rowNum << 16u);
 393              		.loc 1 157 0
 394 008c 204A     		ldr	r2, .L30+16
 395 008e 0092     		str	r2, [sp]
 158:Generated_Source\PSoC4/CyFlash.c **** 
 396              		.loc 1 158 0
 397 0090 009A     		ldr	r2, [sp]
 398 0092 2404     		lsls	r4, r4, #16
 399              	.LVL13:
 400 0094 1443     		orrs	r4, r2
 401 0096 0094     		str	r4, [sp]
 160:Generated_Source\PSoC4/CyFlash.c ****                 CY_FLASH_CPUSS_SYSREQ_REG = CY_FLASH_CPUSS_REQ_START | CY_FLASH_API_OPCODE_WRITE_RO
 402              		.loc 1 160 0
 403 0098 1A4A     		ldr	r2, .L30+4
 404 009a 6946     		mov	r1, sp
 405 009c 1160     		str	r1, [r2]
 161:Generated_Source\PSoC4/CyFlash.c ****                 CY_NOP;
 406              		.loc 1 161 0
 407 009e 1D48     		ldr	r0, .L30+20
 408 00a0 1A49     		ldr	r1, .L30+12
 409 00a2 0860     		str	r0, [r1]
 162:Generated_Source\PSoC4/CyFlash.c ****                 retValue = CY_FLASH_API_RETURN;
 410              		.loc 1 162 0
 411              		.syntax divided
 412              	@ 162 "Generated_Source\PSoC4\CyFlash.c" 1
 413 00a4 C046     		NOP
 414              	
 415              	@ 0 "" 2
 163:Generated_Source\PSoC4/CyFlash.c ****             }
 416              		.loc 1 163 0
 417              		.thumb
 418              		.syntax unified
 419 00a6 1268     		ldr	r2, [r2]
 420 00a8 120F     		lsrs	r2, r2, #28
 421 00aa 1207     		lsls	r2, r2, #28
 422 00ac F021     		movs	r1, #240
 423 00ae 0906     		lsls	r1, r1, #24
 424 00b0 8A42     		cmp	r2, r1
 425 00b2 04D1     		bne	.L26
ARM GAS  C:\Users\ADEFIR~1\AppData\Local\Temp\ccDhNnbL.s 			page 23


 163:Generated_Source\PSoC4/CyFlash.c ****             }
 426              		.loc 1 163 0 is_stmt 0 discriminator 1
 427 00b4 134B     		ldr	r3, .L30+4
 428 00b6 1B68     		ldr	r3, [r3]
 429 00b8 FF22     		movs	r2, #255
 430 00ba 1340     		ands	r3, r2
 431 00bc 0BE0     		b	.L27
 432              	.L26:
 163:Generated_Source\PSoC4/CyFlash.c ****             }
 433              		.loc 1 163 0 discriminator 2
 434 00be 114A     		ldr	r2, .L30+4
 435 00c0 1268     		ldr	r2, [r2]
 436 00c2 120F     		lsrs	r2, r2, #28
 437 00c4 1207     		lsls	r2, r2, #28
 438 00c6 A021     		movs	r1, #160
 439 00c8 0906     		lsls	r1, r1, #24
 440 00ca 8A42     		cmp	r2, r1
 441 00cc 03D0     		beq	.L27
 163:Generated_Source\PSoC4/CyFlash.c ****             }
 442              		.loc 1 163 0 discriminator 4
 443 00ce 0D4B     		ldr	r3, .L30+4
 444 00d0 1B68     		ldr	r3, [r3]
 445 00d2 FF22     		movs	r2, #255
 446 00d4 1340     		ands	r3, r2
 447              	.L27:
 163:Generated_Source\PSoC4/CyFlash.c ****             }
 448              		.loc 1 163 0 discriminator 8
 449 00d6 2393     		str	r3, [sp, #140]
 450              	.L25:
 202:Generated_Source\PSoC4/CyFlash.c ****             {
 451              		.loc 1 202 0 is_stmt 1
 452 00d8 229B     		ldr	r3, [sp, #136]
 453 00da 002B     		cmp	r3, #0
 454 00dc 07D1     		bne	.L28
 204:Generated_Source\PSoC4/CyFlash.c **** 
 455              		.loc 1 204 0
 456 00de FFF7FEFF 		bl	CySysFlashClockRestore
 457              	.LVL14:
 458 00e2 2290     		str	r0, [sp, #136]
 206:Generated_Source\PSoC4/CyFlash.c ****                 {
 459              		.loc 1 206 0
 460 00e4 229B     		ldr	r3, [sp, #136]
 461 00e6 002B     		cmp	r3, #0
 462 00e8 01D0     		beq	.L28
 208:Generated_Source\PSoC4/CyFlash.c ****                 }
 463              		.loc 1 208 0
 464 00ea 229B     		ldr	r3, [sp, #136]
 465 00ec 2393     		str	r3, [sp, #140]
 466              	.L28:
 212:Generated_Source\PSoC4/CyFlash.c ****         }
 467              		.loc 1 212 0
 468 00ee 2800     		movs	r0, r5
 469 00f0 FFF7FEFF 		bl	CyExitCriticalSection
 470              	.LVL15:
 471 00f4 01E0     		b	.L23
 472              	.LVL16:
 473              	.L20:
ARM GAS  C:\Users\ADEFIR~1\AppData\Local\Temp\ccDhNnbL.s 			page 24


 217:Generated_Source\PSoC4/CyFlash.c ****     }
 474              		.loc 1 217 0
 475 00f6 0423     		movs	r3, #4
 476 00f8 2393     		str	r3, [sp, #140]
 477              	.LVL17:
 478              	.L23:
 220:Generated_Source\PSoC4/CyFlash.c **** }
 479              		.loc 1 220 0
 480 00fa 2398     		ldr	r0, [sp, #140]
 221:Generated_Source\PSoC4/CyFlash.c **** 
 481              		.loc 1 221 0
 482 00fc 25B0     		add	sp, sp, #148
 483              		@ sp needed
 484 00fe 30BD     		pop	{r4, r5, pc}
 485              	.L31:
 486              		.align	2
 487              	.L30:
 488 0100 B6D70000 		.word	55222
 489 0104 08001040 		.word	1074790408
 490 0108 04000080 		.word	-2147483644
 491 010c 04001040 		.word	1074790404
 492 0110 B6D80000 		.word	55478
 493 0114 05000080 		.word	-2147483643
 494              		.cfi_endproc
 495              	.LFE1:
 496              		.size	CySysFlashWriteRow, .-CySysFlashWriteRow
 497              		.section	.text.CySysFlashSetWaitCycles,"ax",%progbits
 498              		.align	2
 499              		.global	CySysFlashSetWaitCycles
 500              		.code	16
 501              		.thumb_func
 502              		.type	CySysFlashSetWaitCycles, %function
 503              	CySysFlashSetWaitCycles:
 504              	.LFB2:
 423:Generated_Source\PSoC4/CyFlash.c ****     uint8  interruptState;
 505              		.loc 1 423 0
 506              		.cfi_startproc
 507              		@ args = 0, pretend = 0, frame = 0
 508              		@ frame_needed = 0, uses_anonymous_args = 0
 509              	.LVL18:
 510 0000 70B5     		push	{r4, r5, r6, lr}
 511              		.cfi_def_cfa_offset 16
 512              		.cfi_offset 4, -16
 513              		.cfi_offset 5, -12
 514              		.cfi_offset 6, -8
 515              		.cfi_offset 14, -4
 516 0002 0400     		movs	r4, r0
 426:Generated_Source\PSoC4/CyFlash.c **** 
 517              		.loc 1 426 0
 518 0004 FFF7FEFF 		bl	CyEnterCriticalSection
 519              	.LVL19:
 520 0008 0500     		movs	r5, r0
 521              	.LVL20:
 441:Generated_Source\PSoC4/CyFlash.c ****             {
 522              		.loc 1 441 0
 523 000a 102C     		cmp	r4, #16
 524 000c 05D8     		bhi	.L33
ARM GAS  C:\Users\ADEFIR~1\AppData\Local\Temp\ccDhNnbL.s 			page 25


 443:Generated_Source\PSoC4/CyFlash.c ****             } else
 525              		.loc 1 443 0
 526 000e 104A     		ldr	r2, .L37
 527 0010 1368     		ldr	r3, [r2]
 528 0012 0321     		movs	r1, #3
 529 0014 8B43     		bics	r3, r1
 530 0016 1360     		str	r3, [r2]
 531 0018 16E0     		b	.L34
 532              	.L33:
 445:Generated_Source\PSoC4/CyFlash.c ****             {
 533              		.loc 1 445 0
 534 001a 202C     		cmp	r4, #32
 535 001c 07D8     		bhi	.L35
 447:Generated_Source\PSoC4/CyFlash.c ****             } else
 536              		.loc 1 447 0
 537 001e 0C49     		ldr	r1, .L37
 538 0020 0B68     		ldr	r3, [r1]
 539 0022 0322     		movs	r2, #3
 540 0024 9343     		bics	r3, r2
 541 0026 023A     		subs	r2, r2, #2
 542 0028 1343     		orrs	r3, r2
 543 002a 0B60     		str	r3, [r1]
 544 002c 0CE0     		b	.L34
 545              	.L35:
 450:Generated_Source\PSoC4/CyFlash.c ****                 {
 546              		.loc 1 450 0
 547 002e 302C     		cmp	r4, #48
 548 0030 07D8     		bhi	.L36
 452:Generated_Source\PSoC4/CyFlash.c ****                 }
 549              		.loc 1 452 0
 550 0032 0749     		ldr	r1, .L37
 551 0034 0B68     		ldr	r3, [r1]
 552 0036 0322     		movs	r2, #3
 553 0038 9343     		bics	r3, r2
 554 003a 013A     		subs	r2, r2, #1
 555 003c 1343     		orrs	r3, r2
 556 003e 0B60     		str	r3, [r1]
 557 0040 02E0     		b	.L34
 558              	.L36:
 459:Generated_Source\PSoC4/CyFlash.c ****         }
 559              		.loc 1 459 0 discriminator 1
 560 0042 0020     		movs	r0, #0
 561 0044 FFF7FEFF 		bl	CyHalt
 562              	.LVL21:
 563              	.L34:
 464:Generated_Source\PSoC4/CyFlash.c **** }
 564              		.loc 1 464 0
 565 0048 2800     		movs	r0, r5
 566 004a FFF7FEFF 		bl	CyExitCriticalSection
 567              	.LVL22:
 465:Generated_Source\PSoC4/CyFlash.c **** 
 568              		.loc 1 465 0
 569              		@ sp needed
 570              	.LVL23:
 571              	.LVL24:
 572 004e 70BD     		pop	{r4, r5, r6, pc}
 573              	.L38:
ARM GAS  C:\Users\ADEFIR~1\AppData\Local\Temp\ccDhNnbL.s 			page 26


 574              		.align	2
 575              	.L37:
 576 0050 30001040 		.word	1074790448
 577              		.cfi_endproc
 578              	.LFE2:
 579              		.size	CySysFlashSetWaitCycles, .-CySysFlashSetWaitCycles
 580              		.section	.text.CySysSFlashWriteUserRow,"ax",%progbits
 581              		.align	2
 582              		.global	CySysSFlashWriteUserRow
 583              		.code	16
 584              		.thumb_func
 585              		.type	CySysSFlashWriteUserRow, %function
 586              	CySysSFlashWriteUserRow:
 587              	.LFB3:
 491:Generated_Source\PSoC4/CyFlash.c ****     volatile uint32 retValue = CY_SYS_FLASH_SUCCESS;
 588              		.loc 1 491 0
 589              		.cfi_startproc
 590              		@ args = 0, pretend = 0, frame = 144
 591              		@ frame_needed = 0, uses_anonymous_args = 0
 592              	.LVL25:
 593 0000 30B5     		push	{r4, r5, lr}
 594              		.cfi_def_cfa_offset 12
 595              		.cfi_offset 4, -12
 596              		.cfi_offset 5, -8
 597              		.cfi_offset 14, -4
 598 0002 A5B0     		sub	sp, sp, #148
 599              		.cfi_def_cfa_offset 160
 600 0004 0400     		movs	r4, r0
 492:Generated_Source\PSoC4/CyFlash.c ****     volatile uint32 clkCnfRetValue = CY_SYS_FLASH_SUCCESS;
 601              		.loc 1 492 0
 602 0006 0023     		movs	r3, #0
 603 0008 2393     		str	r3, [sp, #140]
 493:Generated_Source\PSoC4/CyFlash.c ****     volatile uint32 parameters[(CY_FLASH_SIZEOF_ROW + CY_FLASH_SRAM_ROM_DATA)/4u];
 604              		.loc 1 493 0
 605 000a 2293     		str	r3, [sp, #136]
 498:Generated_Source\PSoC4/CyFlash.c ****     {
 606              		.loc 1 498 0
 607 000c 0328     		cmp	r0, #3
 608 000e 6AD8     		bhi	.L40
 498:Generated_Source\PSoC4/CyFlash.c ****     {
 609              		.loc 1 498 0 is_stmt 0 discriminator 1
 610 0010 0029     		cmp	r1, #0
 611 0012 68D0     		beq	.L40
 501:Generated_Source\PSoC4/CyFlash.c ****                          (uint32) (CY_FLASH_PAGE_LATCH_START_ADDR             << CY_FLASH_PARAM_ADD
 612              		.loc 1 501 0 is_stmt 1
 613 0014 364B     		ldr	r3, .L50
 614 0016 0093     		str	r3, [sp]
 505:Generated_Source\PSoC4/CyFlash.c **** 
 615              		.loc 1 505 0
 616 0018 7F23     		movs	r3, #127
 617 001a 0193     		str	r3, [sp, #4]
 507:Generated_Source\PSoC4/CyFlash.c ****         CY_FLASH_CPUSS_SYSARG_REG = (uint32) &parameters[0u];
 618              		.loc 1 507 0
 619 001c 8022     		movs	r2, #128
 620 001e 02A8     		add	r0, sp, #8
 621              	.LVL26:
 622 0020 FFF7FEFF 		bl	memcpy
ARM GAS  C:\Users\ADEFIR~1\AppData\Local\Temp\ccDhNnbL.s 			page 27


 623              	.LVL27:
 508:Generated_Source\PSoC4/CyFlash.c ****         CY_FLASH_CPUSS_SYSREQ_REG = CY_FLASH_CPUSS_REQ_START | CY_FLASH_API_OPCODE_LOAD;
 624              		.loc 1 508 0
 625 0024 334B     		ldr	r3, .L50+4
 626 0026 6A46     		mov	r2, sp
 627 0028 1A60     		str	r2, [r3]
 509:Generated_Source\PSoC4/CyFlash.c ****         CY_NOP;
 628              		.loc 1 509 0
 629 002a 3349     		ldr	r1, .L50+8
 630 002c 334A     		ldr	r2, .L50+12
 631 002e 1160     		str	r1, [r2]
 510:Generated_Source\PSoC4/CyFlash.c ****         retValue = CY_FLASH_API_RETURN;
 632              		.loc 1 510 0
 633              		.syntax divided
 634              	@ 510 "Generated_Source\PSoC4\CyFlash.c" 1
 635 0030 C046     		NOP
 636              	
 637              	@ 0 "" 2
 511:Generated_Source\PSoC4/CyFlash.c **** 
 638              		.loc 1 511 0
 639              		.thumb
 640              		.syntax unified
 641 0032 1B68     		ldr	r3, [r3]
 642 0034 1B0F     		lsrs	r3, r3, #28
 643 0036 1B07     		lsls	r3, r3, #28
 644 0038 F022     		movs	r2, #240
 645 003a 1206     		lsls	r2, r2, #24
 646 003c 9342     		cmp	r3, r2
 647 003e 04D1     		bne	.L41
 511:Generated_Source\PSoC4/CyFlash.c **** 
 648              		.loc 1 511 0 is_stmt 0 discriminator 1
 649 0040 2C4B     		ldr	r3, .L50+4
 650 0042 1B68     		ldr	r3, [r3]
 651 0044 FF22     		movs	r2, #255
 652 0046 1340     		ands	r3, r2
 653 0048 0DE0     		b	.L42
 654              	.L41:
 511:Generated_Source\PSoC4/CyFlash.c **** 
 655              		.loc 1 511 0 discriminator 2
 656 004a 2A4B     		ldr	r3, .L50+4
 657 004c 1B68     		ldr	r3, [r3]
 658 004e 1B0F     		lsrs	r3, r3, #28
 659 0050 1B07     		lsls	r3, r3, #28
 660 0052 A022     		movs	r2, #160
 661 0054 1206     		lsls	r2, r2, #24
 662 0056 9342     		cmp	r3, r2
 663 0058 04D0     		beq	.L49
 511:Generated_Source\PSoC4/CyFlash.c **** 
 664              		.loc 1 511 0 discriminator 4
 665 005a 264B     		ldr	r3, .L50+4
 666 005c 1B68     		ldr	r3, [r3]
 667 005e FF22     		movs	r2, #255
 668 0060 1340     		ands	r3, r2
 669 0062 00E0     		b	.L42
 670              	.L49:
 511:Generated_Source\PSoC4/CyFlash.c **** 
 671              		.loc 1 511 0
ARM GAS  C:\Users\ADEFIR~1\AppData\Local\Temp\ccDhNnbL.s 			page 28


 672 0064 0023     		movs	r3, #0
 673              	.L42:
 511:Generated_Source\PSoC4/CyFlash.c **** 
 674              		.loc 1 511 0 discriminator 8
 675 0066 2393     		str	r3, [sp, #140]
 513:Generated_Source\PSoC4/CyFlash.c ****         {
 676              		.loc 1 513 0 is_stmt 1 discriminator 8
 677 0068 239B     		ldr	r3, [sp, #140]
 678 006a 002B     		cmp	r3, #0
 679 006c 3DD1     		bne	.L43
 521:Generated_Source\PSoC4/CyFlash.c **** 
 680              		.loc 1 521 0
 681 006e FFF7FEFF 		bl	CyEnterCriticalSection
 682              	.LVL28:
 683 0072 0500     		movs	r5, r0
 684              	.LVL29:
 523:Generated_Source\PSoC4/CyFlash.c **** 
 685              		.loc 1 523 0
 686 0074 FFF7FEFF 		bl	CySysFlashClockBackup
 687              	.LVL30:
 688 0078 2290     		str	r0, [sp, #136]
 526:Generated_Source\PSoC4/CyFlash.c ****             {
 689              		.loc 1 526 0
 690 007a 229B     		ldr	r3, [sp, #136]
 691 007c 002B     		cmp	r3, #0
 692 007e 02D1     		bne	.L44
 528:Generated_Source\PSoC4/CyFlash.c ****             }
 693              		.loc 1 528 0
 694 0080 FFF7FEFF 		bl	CySysFlashClockConfig
 695              	.LVL31:
 696 0084 2390     		str	r0, [sp, #140]
 697              	.L44:
 532:Generated_Source\PSoC4/CyFlash.c ****             {
 698              		.loc 1 532 0
 699 0086 239B     		ldr	r3, [sp, #140]
 700 0088 002B     		cmp	r3, #0
 701 008a 22D1     		bne	.L45
 535:Generated_Source\PSoC4/CyFlash.c ****                 parameters[1u] = (uint32) rowNum;
 702              		.loc 1 535 0
 703 008c 1C4A     		ldr	r2, .L50+16
 704 008e 0092     		str	r2, [sp]
 536:Generated_Source\PSoC4/CyFlash.c **** 
 705              		.loc 1 536 0
 706 0090 0194     		str	r4, [sp, #4]
 538:Generated_Source\PSoC4/CyFlash.c ****                 CY_FLASH_CPUSS_SYSREQ_REG = CY_FLASH_CPUSS_REQ_START | CY_FLASH_API_OPCODE_WRITE_SF
 707              		.loc 1 538 0
 708 0092 184A     		ldr	r2, .L50+4
 709 0094 6946     		mov	r1, sp
 710 0096 1160     		str	r1, [r2]
 539:Generated_Source\PSoC4/CyFlash.c ****                 CY_NOP;
 711              		.loc 1 539 0
 712 0098 1A48     		ldr	r0, .L50+20
 713 009a 1849     		ldr	r1, .L50+12
 714 009c 0860     		str	r0, [r1]
 540:Generated_Source\PSoC4/CyFlash.c ****                 retValue = CY_FLASH_API_RETURN;
 715              		.loc 1 540 0
 716              		.syntax divided
ARM GAS  C:\Users\ADEFIR~1\AppData\Local\Temp\ccDhNnbL.s 			page 29


 717              	@ 540 "Generated_Source\PSoC4\CyFlash.c" 1
 718 009e C046     		NOP
 719              	
 720              	@ 0 "" 2
 541:Generated_Source\PSoC4/CyFlash.c ****             }
 721              		.loc 1 541 0
 722              		.thumb
 723              		.syntax unified
 724 00a0 1268     		ldr	r2, [r2]
 725 00a2 120F     		lsrs	r2, r2, #28
 726 00a4 1207     		lsls	r2, r2, #28
 727 00a6 F021     		movs	r1, #240
 728 00a8 0906     		lsls	r1, r1, #24
 729 00aa 8A42     		cmp	r2, r1
 730 00ac 04D1     		bne	.L46
 541:Generated_Source\PSoC4/CyFlash.c ****             }
 731              		.loc 1 541 0 is_stmt 0 discriminator 1
 732 00ae 114B     		ldr	r3, .L50+4
 733 00b0 1B68     		ldr	r3, [r3]
 734 00b2 FF22     		movs	r2, #255
 735 00b4 1340     		ands	r3, r2
 736 00b6 0BE0     		b	.L47
 737              	.L46:
 541:Generated_Source\PSoC4/CyFlash.c ****             }
 738              		.loc 1 541 0 discriminator 2
 739 00b8 0E4A     		ldr	r2, .L50+4
 740 00ba 1268     		ldr	r2, [r2]
 741 00bc 120F     		lsrs	r2, r2, #28
 742 00be 1207     		lsls	r2, r2, #28
 743 00c0 A021     		movs	r1, #160
 744 00c2 0906     		lsls	r1, r1, #24
 745 00c4 8A42     		cmp	r2, r1
 746 00c6 03D0     		beq	.L47
 541:Generated_Source\PSoC4/CyFlash.c ****             }
 747              		.loc 1 541 0 discriminator 4
 748 00c8 0A4B     		ldr	r3, .L50+4
 749 00ca 1B68     		ldr	r3, [r3]
 750 00cc FF22     		movs	r2, #255
 751 00ce 1340     		ands	r3, r2
 752              	.L47:
 541:Generated_Source\PSoC4/CyFlash.c ****             }
 753              		.loc 1 541 0 discriminator 8
 754 00d0 2393     		str	r3, [sp, #140]
 755              	.L45:
 544:Generated_Source\PSoC4/CyFlash.c ****             {
 756              		.loc 1 544 0 is_stmt 1
 757 00d2 229B     		ldr	r3, [sp, #136]
 758 00d4 002B     		cmp	r3, #0
 759 00d6 02D1     		bne	.L48
 546:Generated_Source\PSoC4/CyFlash.c ****             }
 760              		.loc 1 546 0
 761 00d8 FFF7FEFF 		bl	CySysFlashClockRestore
 762              	.LVL32:
 763 00dc 2290     		str	r0, [sp, #136]
 764              	.L48:
 548:Generated_Source\PSoC4/CyFlash.c ****         }
 765              		.loc 1 548 0
ARM GAS  C:\Users\ADEFIR~1\AppData\Local\Temp\ccDhNnbL.s 			page 30


 766 00de 2800     		movs	r0, r5
 767 00e0 FFF7FEFF 		bl	CyExitCriticalSection
 768              	.LVL33:
 769 00e4 01E0     		b	.L43
 770              	.LVL34:
 771              	.L40:
 553:Generated_Source\PSoC4/CyFlash.c ****     }
 772              		.loc 1 553 0
 773 00e6 0423     		movs	r3, #4
 774 00e8 2393     		str	r3, [sp, #140]
 775              	.LVL35:
 776              	.L43:
 556:Generated_Source\PSoC4/CyFlash.c **** }
 777              		.loc 1 556 0
 778 00ea 2398     		ldr	r0, [sp, #140]
 557:Generated_Source\PSoC4/CyFlash.c **** #endif /* (CY_SFLASH_XTRA_ROWS) */
 779              		.loc 1 557 0
 780 00ec 25B0     		add	sp, sp, #148
 781              		@ sp needed
 782              	.LVL36:
 783 00ee 30BD     		pop	{r4, r5, pc}
 784              	.L51:
 785              		.align	2
 786              	.L50:
 787 00f0 B6D70000 		.word	55222
 788 00f4 08001040 		.word	1074790408
 789 00f8 04000080 		.word	-2147483644
 790 00fc 04001040 		.word	1074790404
 791 0100 B6EB0000 		.word	60342
 792 0104 18000080 		.word	-2147483624
 793              		.cfi_endproc
 794              	.LFE3:
 795              		.size	CySysSFlashWriteUserRow, .-CySysSFlashWriteUserRow
 796              		.bss
 797              		.align	2
 798              		.set	.LANCHOR0,. + 0
 799              		.type	cySysFlashBackup, %object
 800              		.size	cySysFlashBackup, 24
 801              	cySysFlashBackup:
 802 0000 00000000 		.space	24
 802      00000000 
 802      00000000 
 802      00000000 
 802      00000000 
 803              		.text
 804              	.Letext0:
 805              		.file 2 "Generated_Source\\PSoC4\\cytypes.h"
 806              		.file 3 "Generated_Source\\PSoC4\\CyFlash.h"
 807              		.file 4 "Generated_Source\\PSoC4\\CyLib.h"
