Archive member included to satisfy reference by file (symbol)

.\CortexM0p\ARM_GCC_541\Debug\Walkie Design01.a(Pin_1.o)
                              .\CortexM0p\ARM_GCC_541\Debug\main.o (Pin_1_Write)
.\CortexM0p\ARM_GCC_541\Debug\Walkie Design01.a(Pin_2.o)
                              .\CortexM0p\ARM_GCC_541\Debug\main.o (Pin_2_Write)
.\CortexM0p\ARM_GCC_541\Debug\Walkie Design01.a(Pin_3.o)
                              .\CortexM0p\ARM_GCC_541\Debug\main.o (Pin_3_Write)
.\CortexM0p\ARM_GCC_541\Debug\Walkie Design01.a(Pin_4.o)
                              .\CortexM0p\ARM_GCC_541\Debug\main.o (Pin_4_Write)
.\CortexM0p\ARM_GCC_541\Debug\Walkie Design01.a(Pin_5.o)
                              .\CortexM0p\ARM_GCC_541\Debug\main.o (Pin_5_Write)
.\CortexM0p\ARM_GCC_541\Debug\Walkie Design01.a(Pin_6.o)
                              .\CortexM0p\ARM_GCC_541\Debug\main.o (Pin_6_Write)
.\CortexM0p\ARM_GCC_541\Debug\Walkie Design01.a(Pin_7.o)
                              .\CortexM0p\ARM_GCC_541\Debug\main.o (Pin_7_Write)
.\CortexM0p\ARM_GCC_541\Debug\Walkie Design01.a(Pin_8.o)
                              .\CortexM0p\ARM_GCC_541\Debug\main.o (Pin_8_Write)
.\CortexM0p\ARM_GCC_541\Debug\Walkie Design01.a(Pin_14.o)
                              .\CortexM0p\ARM_GCC_541\Debug\main.o (Pin_14_Write)
.\CortexM0p\ARM_GCC_541\Debug\Walkie Design01.a(Pin_15.o)
                              .\CortexM0p\ARM_GCC_541\Debug\main.o (Pin_15_Write)
.\CortexM0p\ARM_GCC_541\Debug\Walkie Design01.a(CyLib.o)
                              .\CortexM0p\ARM_GCC_541\Debug\Cm0plusStart.o (CyHalt)
.\CortexM0p\ARM_GCC_541\Debug\Walkie Design01.a(CyLFClk.o)
                              .\CortexM0p\ARM_GCC_541\Debug\Walkie Design01.a(CyLib.o) (CySysClkWcoEnabled)
.\CortexM0p\ARM_GCC_541\Debug\Walkie Design01.a(CyBootAsmGnu.o)
                              .\CortexM0p\ARM_GCC_541\Debug\Walkie Design01.a(CyLib.o) (CyDelayCycles)
.\CortexM0p\ARM_GCC_541\Debug\Walkie Design01.a(CyFlash.o)
                              .\CortexM0p\ARM_GCC_541\Debug\Walkie Design01.a(CyLib.o) (CySysFlashSetWaitCycles)
c:/program files (x86)/cypress/psoc creator/4.2/psoc creator/import/gnu/arm/5.4.1/bin/../lib/gcc/arm-none-eabi/5.4.1/armv6-m\libgcc.a(_udivsi3.o)
                              .\CortexM0p\ARM_GCC_541\Debug\Walkie Design01.a(CyLib.o) (__aeabi_uidiv)
c:/program files (x86)/cypress/psoc creator/4.2/psoc creator/import/gnu/arm/5.4.1/bin/../lib/gcc/arm-none-eabi/5.4.1/armv6-m\libgcc.a(_dvmd_tls.o)
                              c:/program files (x86)/cypress/psoc creator/4.2/psoc creator/import/gnu/arm/5.4.1/bin/../lib/gcc/arm-none-eabi/5.4.1/armv6-m\libgcc.a(_udivsi3.o) (__aeabi_idiv0)
c:/program files (x86)/cypress/psoc creator/4.2/psoc creator/import/gnu/arm/5.4.1/bin/../lib/gcc/arm-none-eabi/5.4.1/../../../../arm-none-eabi/lib/armv6-m\libg_nano.a(lib_a-errno.o)
                              .\CortexM0p\ARM_GCC_541\Debug\Cm0plusStart.o (__errno)
c:/program files (x86)/cypress/psoc creator/4.2/psoc creator/import/gnu/arm/5.4.1/bin/../lib/gcc/arm-none-eabi/5.4.1/../../../../arm-none-eabi/lib/armv6-m\libg_nano.a(lib_a-exit.o)
                              c:/program files (x86)/cypress/psoc creator/4.2/psoc creator/import/gnu/arm/5.4.1/bin/../lib/gcc/arm-none-eabi/5.4.1/../../../../arm-none-eabi/lib/armv6-m/crt0.o (exit)
c:/program files (x86)/cypress/psoc creator/4.2/psoc creator/import/gnu/arm/5.4.1/bin/../lib/gcc/arm-none-eabi/5.4.1/../../../../arm-none-eabi/lib/armv6-m\libg_nano.a(lib_a-impure.o)
                              c:/program files (x86)/cypress/psoc creator/4.2/psoc creator/import/gnu/arm/5.4.1/bin/../lib/gcc/arm-none-eabi/5.4.1/../../../../arm-none-eabi/lib/armv6-m\libg_nano.a(lib_a-exit.o) (_global_impure_ptr)
c:/program files (x86)/cypress/psoc creator/4.2/psoc creator/import/gnu/arm/5.4.1/bin/../lib/gcc/arm-none-eabi/5.4.1/../../../../arm-none-eabi/lib/armv6-m\libg_nano.a(lib_a-init.o)
                              c:/program files (x86)/cypress/psoc creator/4.2/psoc creator/import/gnu/arm/5.4.1/bin/../lib/gcc/arm-none-eabi/5.4.1/../../../../arm-none-eabi/lib/armv6-m/crt0.o (__libc_init_array)
c:/program files (x86)/cypress/psoc creator/4.2/psoc creator/import/gnu/arm/5.4.1/bin/../lib/gcc/arm-none-eabi/5.4.1/../../../../arm-none-eabi/lib/armv6-m\libg_nano.a(lib_a-memcpy-stub.o)
                              .\CortexM0p\ARM_GCC_541\Debug\Walkie Design01.a(CyFlash.o) (memcpy)
c:/program files (x86)/cypress/psoc creator/4.2/psoc creator/import/gnu/arm/5.4.1/bin/../lib/gcc/arm-none-eabi/5.4.1/../../../../arm-none-eabi/lib/armv6-m\libg_nano.a(lib_a-memset.o)
                              c:/program files (x86)/cypress/psoc creator/4.2/psoc creator/import/gnu/arm/5.4.1/bin/../lib/gcc/arm-none-eabi/5.4.1/../../../../arm-none-eabi/lib/armv6-m/crt0.o (memset)

Allocating common symbols
Common symbol       size              file

LCD_ClearDisplay    0x1               .\CortexM0p\ARM_GCC_541\Debug\main.o
values              0x1               .\CortexM0p\ARM_GCC_541\Debug\main.o
sizes               0x1               .\CortexM0p\ARM_GCC_541\Debug\main.o
LCD_setDisplay      0x1               .\CortexM0p\ARM_GCC_541\Debug\main.o

Discarded input sections

 .text          0x00000000        0x0 c:/program files (x86)/cypress/psoc creator/4.2/psoc creator/import/gnu/arm/5.4.1/bin/../lib/gcc/arm-none-eabi/5.4.1/armv6-m/crti.o
 .data          0x00000000        0x0 c:/program files (x86)/cypress/psoc creator/4.2/psoc creator/import/gnu/arm/5.4.1/bin/../lib/gcc/arm-none-eabi/5.4.1/armv6-m/crti.o
 .bss           0x00000000        0x0 c:/program files (x86)/cypress/psoc creator/4.2/psoc creator/import/gnu/arm/5.4.1/bin/../lib/gcc/arm-none-eabi/5.4.1/armv6-m/crti.o
 .data          0x00000000        0x4 c:/program files (x86)/cypress/psoc creator/4.2/psoc creator/import/gnu/arm/5.4.1/bin/../lib/gcc/arm-none-eabi/5.4.1/armv6-m/crtbegin.o
 .text          0x00000000       0x78 c:/program files (x86)/cypress/psoc creator/4.2/psoc creator/import/gnu/arm/5.4.1/bin/../lib/gcc/arm-none-eabi/5.4.1/../../../../arm-none-eabi/lib/armv6-m/crt0.o
 .data          0x00000000        0x0 c:/program files (x86)/cypress/psoc creator/4.2/psoc creator/import/gnu/arm/5.4.1/bin/../lib/gcc/arm-none-eabi/5.4.1/../../../../arm-none-eabi/lib/armv6-m/crt0.o
 .bss           0x00000000        0x0 c:/program files (x86)/cypress/psoc creator/4.2/psoc creator/import/gnu/arm/5.4.1/bin/../lib/gcc/arm-none-eabi/5.4.1/../../../../arm-none-eabi/lib/armv6-m/crt0.o
 .ARM.extab     0x00000000        0x0 c:/program files (x86)/cypress/psoc creator/4.2/psoc creator/import/gnu/arm/5.4.1/bin/../lib/gcc/arm-none-eabi/5.4.1/../../../../arm-none-eabi/lib/armv6-m/crt0.o
 .ARM.exidx     0x00000000        0x8 c:/program files (x86)/cypress/psoc creator/4.2/psoc creator/import/gnu/arm/5.4.1/bin/../lib/gcc/arm-none-eabi/5.4.1/../../../../arm-none-eabi/lib/armv6-m/crt0.o
 .text          0x00000000        0x0 .\CortexM0p\ARM_GCC_541\Debug\main.o
 .data          0x00000000        0x0 .\CortexM0p\ARM_GCC_541\Debug\main.o
 .bss           0x00000000        0x0 .\CortexM0p\ARM_GCC_541\Debug\main.o
 COMMON         0x00000000        0x4 .\CortexM0p\ARM_GCC_541\Debug\main.o
 .text          0x00000000        0x0 .\CortexM0p\ARM_GCC_541\Debug\cyfitter_cfg.o
 .data          0x00000000        0x0 .\CortexM0p\ARM_GCC_541\Debug\cyfitter_cfg.o
 .bss           0x00000000        0x0 .\CortexM0p\ARM_GCC_541\Debug\cyfitter_cfg.o
 .text          0x00000000        0x0 .\CortexM0p\ARM_GCC_541\Debug\cymetadata.o
 .data          0x00000000        0x0 .\CortexM0p\ARM_GCC_541\Debug\cymetadata.o
Memory Configuration

Name             Origin             Length             Attributes
rom              0x00000000         0x00008000         xr
ram              0x20000000         0x00001000         xrw
*default*        0x00000000         0xffffffff

Linker script and memory map

LOAD c:/program files (x86)/cypress/psoc creator/4.2/psoc creator/import/gnu/arm/5.4.1/bin/../lib/gcc/arm-none-eabi/5.4.1/armv6-m/crti.o
LOAD c:/program files (x86)/cypress/psoc creator/4.2/psoc creator/import/gnu/arm/5.4.1/bin/../lib/gcc/arm-none-eabi/5.4.1/armv6-m/crtbegin.o
LOAD c:/program files (x86)/cypress/psoc creator/4.2/psoc creator/import/gnu/arm/5.4.1/bin/../lib/gcc/arm-none-eabi/5.4.1/../../../../arm-none-eabi/lib/armv6-m/crt0.o
START GROUP
LOAD .\CortexM0p\ARM_GCC_541\Debug\main.o
LOAD .\CortexM0p\ARM_GCC_541\Debug\cyfitter_cfg.o
LOAD .\CortexM0p\ARM_GCC_541\Debug\cymetadata.o
LOAD .\CortexM0p\ARM_GCC_541\Debug\Cm0plusStart.o
LOAD .\CortexM0p\ARM_GCC_541\Debug\Walkie Design01.a
END GROUP
START GROUP
LOAD c:/program files (x86)/cypress/psoc creator/4.2/psoc creator/import/gnu/arm/5.4.1/bin/../lib/gcc/arm-none-eabi/5.4.1/armv6-m\libgcc.a
LOAD c:/program files (x86)/cypress/psoc creator/4.2/psoc creator/import/gnu/arm/5.4.1/bin/../lib/gcc/arm-none-eabi/5.4.1/../../../../arm-none-eabi/lib/armv6-m\libg_nano.a
LOAD c:/program files (x86)/cypress/psoc creator/4.2/psoc creator/import/gnu/arm/5.4.1/bin/../lib/gcc/arm-none-eabi/5.4.1/../../../../arm-none-eabi/lib/armv6-m\libc_nano.a
END GROUP
START GROUP
LOAD c:/program files (x86)/cypress/psoc creator/4.2/psoc creator/import/gnu/arm/5.4.1/bin/../lib/gcc/arm-none-eabi/5.4.1/armv6-m\libgcc.a
LOAD c:/program files (x86)/cypress/psoc creator/4.2/psoc creator/import/gnu/arm/5.4.1/bin/../lib/gcc/arm-none-eabi/5.4.1/../../../../arm-none-eabi/lib/armv6-m\libc_nano.a
END GROUP
LOAD c:/program files (x86)/cypress/psoc creator/4.2/psoc creator/import/gnu/arm/5.4.1/bin/../lib/gcc/arm-none-eabi/5.4.1/armv6-m/crtend.o
LOAD c:/program files (x86)/cypress/psoc creator/4.2/psoc creator/import/gnu/arm/5.4.1/bin/../lib/gcc/arm-none-eabi/5.4.1/armv6-m/crtn.o
START GROUP
LOAD c:/program files (x86)/cypress/psoc creator/4.2/psoc creator/import/gnu/arm/5.4.1/bin/../lib/gcc/arm-none-eabi/5.4.1/armv6-m\libgcc.a
LOAD c:/program files (x86)/cypress/psoc creator/4.2/psoc creator/import/gnu/arm/5.4.1/bin/../lib/gcc/arm-none-eabi/5.4.1/../../../../arm-none-eabi/lib/armv6-m\libc.a
LOAD c:/program files (x86)/cypress/psoc creator/4.2/psoc creator/import/gnu/arm/5.4.1/bin/../lib/gcc/arm-none-eabi/5.4.1/../../../../arm-none-eabi/lib/armv6-m\libnosys.a
END GROUP
                0x00000000                CY_APPL_ORIGIN = 0x0
                0x00000080                CY_FLASH_ROW_SIZE = 0x80
                0x00000001                CY_APPL_NUM = 0x1
                0x00000001                CY_APPL_MAX = 0x1
                0x00000040                CY_METADATA_SIZE = 0x40
                0x00000000                CY_APPL_LOADABLE = 0x0
                0x00000000                CY_CHECKSUM_EXCLUDE_SIZE = ALIGN (0x0, CY_FLASH_ROW_SIZE)
                0x00000000                CY_APP_FOR_STACK_AND_COPIER = 0x0
                [!provide]                PROVIDE (__cy_heap_start, _end)
                0x00000001                PROVIDE (__cy_region_num, ((__cy_regions_end - __cy_regions) / 0x10))
                0x20001000                PROVIDE (__cy_stack, (ORIGIN (ram) + LENGTH (ram)))
                [!provide]                PROVIDE (__cy_heap_end, (__cy_stack - 0x400))

.cybootloader   0x00000000        0x0
 *(.cybootloader)
                0x00000000                appl1_start = CY_APPL_ORIGIN?CY_APPL_ORIGIN:ALIGN (CY_FLASH_ROW_SIZE)
                0x00003f80                appl2_start = (appl1_start + ALIGN ((((LENGTH (rom) - appl1_start) - (0x2 * CY_FLASH_ROW_SIZE)) / 0x2), CY_FLASH_ROW_SIZE))
                0x00000000                appl_start = (CY_APPL_NUM == 0x1)?appl1_start:appl2_start
                0x00000001                cy_project_type_bootloader = (appl_start == 0x0)?0x1:0x0
                0x00000000                cy_project_type_app_for_stack_and_copier = (CY_APP_FOR_STACK_AND_COPIER == 0x1)?0x1:0x0

.text           0x00000000      0xa7c
 CREATE_OBJECT_SYMBOLS
                0x00000000                PROVIDE (__cy_interrupt_vector, RomVectors)
 *(.romvectors)
 .romvectors    0x00000000       0x10 .\CortexM0p\ARM_GCC_541\Debug\Cm0plusStart.o
                0x00000000                RomVectors
                0x00000001                ASSERT ((. != __cy_interrupt_vector), No interrupt vector)
                0x00000001                ASSERT (CY_APPL_ORIGIN?(SIZEOF (.cybootloader) <= CY_APPL_ORIGIN):0x1, Wrong image location)
                0x00000010                PROVIDE (__cy_reset, Reset)
 *(.text.Reset)
 .text.Reset    0x00000010        0xc .\CortexM0p\ARM_GCC_541\Debug\Cm0plusStart.o
                0x00000010                Reset
                0x00000001                ASSERT ((. != __cy_reset), No reset code)
 *(.psocinit)
 .psocinit      0x0000001c       0x78 .\CortexM0p\ARM_GCC_541\Debug\cyfitter_cfg.o
                0x00000040                cyfitter_cfg
                0x00000100                . = MAX (., 0x100)
 *fill*         0x00000094       0x6c 
 *(.text .text.* .gnu.linkonce.t.*)
 .text          0x00000100       0x60 c:/program files (x86)/cypress/psoc creator/4.2/psoc creator/import/gnu/arm/5.4.1/bin/../lib/gcc/arm-none-eabi/5.4.1/armv6-m/crtbegin.o
 .text.display_number
                0x00000160      0x444 .\CortexM0p\ARM_GCC_541\Debug\main.o
                0x00000160                display_number
 .text.main     0x000005a4       0x24 .\CortexM0p\ARM_GCC_541\Debug\main.o
                0x000005a4                main
 .text.IntDefaultHandler
                0x000005c8       0x10 .\CortexM0p\ARM_GCC_541\Debug\Cm0plusStart.o
                0x000005c8                IntDefaultHandler
 .text.Start_c  0x000005d8       0x48 .\CortexM0p\ARM_GCC_541\Debug\Cm0plusStart.o
                0x000005d8                Start_c
 .text.initialize_psoc
                0x00000620       0x40 .\CortexM0p\ARM_GCC_541\Debug\Cm0plusStart.o
                0x00000620                initialize_psoc
 .text.Pin_1_Write
                0x00000660       0x18 .\CortexM0p\ARM_GCC_541\Debug\Walkie Design01.a(Pin_1.o)
                0x00000660                Pin_1_Write
 .text.Pin_2_Write
                0x00000678       0x18 .\CortexM0p\ARM_GCC_541\Debug\Walkie Design01.a(Pin_2.o)
                0x00000678                Pin_2_Write
 .text.Pin_3_Write
                0x00000690       0x18 .\CortexM0p\ARM_GCC_541\Debug\Walkie Design01.a(Pin_3.o)
                0x00000690                Pin_3_Write
 .text.Pin_4_Write
                0x000006a8       0x18 .\CortexM0p\ARM_GCC_541\Debug\Walkie Design01.a(Pin_4.o)
                0x000006a8                Pin_4_Write
 .text.Pin_5_Write
                0x000006c0       0x18 .\CortexM0p\ARM_GCC_541\Debug\Walkie Design01.a(Pin_5.o)
                0x000006c0                Pin_5_Write
 .text.Pin_6_Write
                0x000006d8       0x18 .\CortexM0p\ARM_GCC_541\Debug\Walkie Design01.a(Pin_6.o)
                0x000006d8                Pin_6_Write
 .text.Pin_7_Write
                0x000006f0       0x18 .\CortexM0p\ARM_GCC_541\Debug\Walkie Design01.a(Pin_7.o)
                0x000006f0                Pin_7_Write
 .text.Pin_8_Write
                0x00000708       0x18 .\CortexM0p\ARM_GCC_541\Debug\Walkie Design01.a(Pin_8.o)
                0x00000708                Pin_8_Write
 .text.Pin_14_Write
                0x00000720       0x18 .\CortexM0p\ARM_GCC_541\Debug\Walkie Design01.a(Pin_14.o)
                0x00000720                Pin_14_Write
 .text.Pin_15_Write
                0x00000738       0x18 .\CortexM0p\ARM_GCC_541\Debug\Walkie Design01.a(Pin_15.o)
                0x00000738                Pin_15_Write
 .text.CySysClkImoDisableWcoLock
                0x00000750       0x4c .\CortexM0p\ARM_GCC_541\Debug\Walkie Design01.a(CyLib.o)
                0x00000750                CySysClkImoDisableWcoLock
 .text.CySysClkImoGetWcoLock
                0x0000079c       0x14 .\CortexM0p\ARM_GCC_541\Debug\Walkie Design01.a(CyLib.o)
                0x0000079c                CySysClkImoGetWcoLock
 .text.CyHalt   0x000007b0        0x4 .\CortexM0p\ARM_GCC_541\Debug\Walkie Design01.a(CyLib.o)
                0x000007b0                CyHalt
 .text.CyDelay  0x000007b4       0x30 .\CortexM0p\ARM_GCC_541\Debug\Walkie Design01.a(CyLib.o)
                0x000007b4                CyDelay
 .text.CySysClkImoEnableWcoLock
                0x000007e4       0xd0 .\CortexM0p\ARM_GCC_541\Debug\Walkie Design01.a(CyLib.o)
                0x000007e4                CySysClkImoEnableWcoLock
 .text.CySysClkWriteImoFreq
                0x000008b4       0xd8 .\CortexM0p\ARM_GCC_541\Debug\Walkie Design01.a(CyLib.o)
                0x000008b4                CySysClkWriteImoFreq
 .text.CySysClkWcoEnabled
                0x0000098c       0x14 .\CortexM0p\ARM_GCC_541\Debug\Walkie Design01.a(CyLFClk.o)
                0x0000098c                CySysClkWcoEnabled
 .text.CySysWdtDisable
                0x000009a0       0x10 .\CortexM0p\ARM_GCC_541\Debug\Walkie Design01.a(CyLFClk.o)
                0x000009a0                CySysWdtDisable
 .text          0x000009b0       0x20 .\CortexM0p\ARM_GCC_541\Debug\Walkie Design01.a(CyBootAsmGnu.o)
                0x000009b0                CyDelayCycles
                0x000009c2                CyEnterCriticalSection
                0x000009ca                CyExitCriticalSection
 .text.CySysFlashSetWaitCycles
                0x000009d0       0x54 .\CortexM0p\ARM_GCC_541\Debug\Walkie Design01.a(CyFlash.o)
                0x000009d0                CySysFlashSetWaitCycles
 .text.__errno  0x00000a24        0xc c:/program files (x86)/cypress/psoc creator/4.2/psoc creator/import/gnu/arm/5.4.1/bin/../lib/gcc/arm-none-eabi/5.4.1/../../../../arm-none-eabi/lib/armv6-m\libg_nano.a(lib_a-errno.o)
                0x00000a24                __errno
 .text.__libc_init_array
                0x00000a30       0x4c c:/program files (x86)/cypress/psoc creator/4.2/psoc creator/import/gnu/arm/5.4.1/bin/../lib/gcc/arm-none-eabi/5.4.1/../../../../arm-none-eabi/lib/armv6-m\libg_nano.a(lib_a-init.o)
                0x00000a30                __libc_init_array
 *(.plt)
 *(.gnu.warning)
 *(.glue_7t)
 .glue_7t       0x00000a7c        0x0 linker stubs
 *(.glue_7)
 .glue_7        0x00000a7c        0x0 linker stubs
 *(.vfp11_veneer)
 .vfp11_veneer  0x00000a7c        0x0 linker stubs
 *(.bootloader)
 *(.ARM.extab* .gnu.linkonce.armextab.*)
 *(.gcc_except_table)

.v4_bx          0x00000a7c        0x0
 .v4_bx         0x00000a7c        0x0 linker stubs

.iplt           0x00000a7c        0x0
 .iplt          0x00000a7c        0x0 c:/program files (x86)/cypress/psoc creator/4.2/psoc creator/import/gnu/arm/5.4.1/bin/../lib/gcc/arm-none-eabi/5.4.1/armv6-m/crtbegin.o

.eh_frame_hdr
 *(.eh_frame_hdr)

.eh_frame       0x00000a7c        0x4
 *(.eh_frame)
 .eh_frame      0x00000a7c        0x0 c:/program files (x86)/cypress/psoc creator/4.2/psoc creator/import/gnu/arm/5.4.1/bin/../lib/gcc/arm-none-eabi/5.4.1/armv6-m/crtbegin.o
 .eh_frame      0x00000a7c        0x4 c:/program files (x86)/cypress/psoc creator/4.2/psoc creator/import/gnu/arm/5.4.1/bin/../lib/gcc/arm-none-eabi/5.4.1/armv6-m/crtend.o
                [!provide]                PROVIDE (__exidx_start, .)

.ARM.exidx
 *(.ARM.exidx* .gnu.linkonce.armexidx.*)
                0x00000a80                __exidx_end = .

.rodata         0x00000a80       0xa0
 *(.rodata .rodata.* .gnu.linkonce.r.*)
 .rodata        0x00000a80       0x68 .\CortexM0p\ARM_GCC_541\Debug\main.o
 .rodata.str1.1
                0x00000ae8        0x2 c:/program files (x86)/cypress/psoc creator/4.2/psoc creator/import/gnu/arm/5.4.1/bin/../lib/gcc/arm-none-eabi/5.4.1/../../../../arm-none-eabi/lib/armv6-m\libg_nano.a(lib_a-impure.o)
                0x00000aec                . = ALIGN (0x4)
 *fill*         0x00000aea        0x2 
 *(.init)
 .init          0x00000aec        0x4 c:/program files (x86)/cypress/psoc creator/4.2/psoc creator/import/gnu/arm/5.4.1/bin/../lib/gcc/arm-none-eabi/5.4.1/armv6-m/crti.o
                0x00000aec                _init
 .init          0x00000af0        0x8 c:/program files (x86)/cypress/psoc creator/4.2/psoc creator/import/gnu/arm/5.4.1/bin/../lib/gcc/arm-none-eabi/5.4.1/armv6-m/crtn.o
                0x00000af8                . = ALIGN (0x4)
                0x00000af8                __preinit_array_start = .
 *(.preinit_array)
                0x00000af8                __preinit_array_end = .
                0x00000af8                . = ALIGN (0x4)
                0x00000af8                __init_array_start = .
 *(SORT(.init_array.*))
 *(.init_array)
 .init_array    0x00000af8        0x4 c:/program files (x86)/cypress/psoc creator/4.2/psoc creator/import/gnu/arm/5.4.1/bin/../lib/gcc/arm-none-eabi/5.4.1/armv6-m/crtbegin.o
 .init_array    0x00000afc        0x4 .\CortexM0p\ARM_GCC_541\Debug\Cm0plusStart.o
                0x00000b00                __init_array_end = .
                0x00000b00                . = ALIGN (0x4)
 *(.fini)
 .fini          0x00000b00        0x4 c:/program files (x86)/cypress/psoc creator/4.2/psoc creator/import/gnu/arm/5.4.1/bin/../lib/gcc/arm-none-eabi/5.4.1/armv6-m/crti.o
                0x00000b00                _fini
 .fini          0x00000b04        0x8 c:/program files (x86)/cypress/psoc creator/4.2/psoc creator/import/gnu/arm/5.4.1/bin/../lib/gcc/arm-none-eabi/5.4.1/armv6-m/crtn.o
                0x00000b0c                . = ALIGN (0x4)
                0x00000b0c                __fini_array_start = .
 *(.fini_array)
 .fini_array    0x00000b0c        0x4 c:/program files (x86)/cypress/psoc creator/4.2/psoc creator/import/gnu/arm/5.4.1/bin/../lib/gcc/arm-none-eabi/5.4.1/armv6-m/crtbegin.o
 *(SORT(.fini_array.*))
                0x00000b10                __fini_array_end = .
                0x00000b10                . = ALIGN (0x4)
 *crtbegin.o(.ctors)
 *(EXCLUDE_FILE(*crtend.o) .ctors)
 *(SORT(.ctors.*))
 *crtend.o(.ctors)
                0x00000b10                . = ALIGN (0x4)
 *crtbegin.o(.dtors)
 *(EXCLUDE_FILE(*crtend.o) .dtors)
 *(SORT(.dtors.*))
 *crtend.o(.dtors)
                0x00000b10                . = ALIGN (0x4)
                0x00000b10                __cy_regions = .
                0x00000b10        0x4 LONG 0xb20 __cy_region_init_ram
                0x00000b14        0x4 LONG 0x20000080 __cy_region_start_data
                0x00000b18        0x4 LONG 0x80 __cy_region_init_size_ram
                0x00000b1c        0x4 LONG 0x20 __cy_region_zero_size_ram
                0x00000b20                __cy_regions_end = .
                0x00000b20                . = ALIGN (0x8)
                0x00000b20                _etext = .

.cy_checksum_exclude
                0x00000b20        0x0
 *(.cy_checksum_exclude)

.ramvectors     0x20000000       0x80
                0x20000000                __cy_region_start_ram = .
 *(.ramvectors)
 .ramvectors    0x20000000       0x80 .\CortexM0p\ARM_GCC_541\Debug\Cm0plusStart.o
                0x20000000                CyRamVectors

.noinit
 *(.noinit)

.data           0x20000080       0x80 load address 0x00000b20
                0x20000080                __cy_region_start_data = .
 *(.jcr)
 .jcr           0x20000080        0x0 c:/program files (x86)/cypress/psoc creator/4.2/psoc creator/import/gnu/arm/5.4.1/bin/../lib/gcc/arm-none-eabi/5.4.1/armv6-m/crtbegin.o
 .jcr           0x20000080        0x4 c:/program files (x86)/cypress/psoc creator/4.2/psoc creator/import/gnu/arm/5.4.1/bin/../lib/gcc/arm-none-eabi/5.4.1/armv6-m/crtend.o
 *(.got.plt)
 *(.got)
 *(.shdata)
 *(.data .data.* .gnu.linkonce.d.*)
 .data          0x20000084       0x14 .\CortexM0p\ARM_GCC_541\Debug\Walkie Design01.a(CyLib.o)
                0x20000084                CySysClkPumpConfig
                0x20000088                cydelay32kMs
                0x2000008c                cydelayFreqKhz
                0x20000090                cydelayFreqMhz
                0x20000094                cydelayFreqHz
 .data.impure_data
                0x20000098       0x60 c:/program files (x86)/cypress/psoc creator/4.2/psoc creator/import/gnu/arm/5.4.1/bin/../lib/gcc/arm-none-eabi/5.4.1/../../../../arm-none-eabi/lib/armv6-m\libg_nano.a(lib_a-impure.o)
 .data._impure_ptr
                0x200000f8        0x4 c:/program files (x86)/cypress/psoc creator/4.2/psoc creator/import/gnu/arm/5.4.1/bin/../lib/gcc/arm-none-eabi/5.4.1/../../../../arm-none-eabi/lib/armv6-m\libg_nano.a(lib_a-impure.o)
                0x200000f8                _impure_ptr
                0x20000100                . = ALIGN (0x8)
 *fill*         0x200000fc        0x4 
 *(.ram)
                0x20000100                _edata = .

.igot.plt       0x20000100        0x0 load address 0x00000ba0
 .igot.plt      0x20000100        0x0 c:/program files (x86)/cypress/psoc creator/4.2/psoc creator/import/gnu/arm/5.4.1/bin/../lib/gcc/arm-none-eabi/5.4.1/armv6-m/crtbegin.o

.bss            0x20000100       0x20 load address 0x00000ba0
                0x20000100                PROVIDE (__bss_start__, .)
 *(.shbss)
 *(.bss .bss.* .gnu.linkonce.b.*)
 .bss           0x20000100       0x1c c:/program files (x86)/cypress/psoc creator/4.2/psoc creator/import/gnu/arm/5.4.1/bin/../lib/gcc/arm-none-eabi/5.4.1/armv6-m/crtbegin.o
 *(COMMON)
                0x20000120                . = ALIGN (0x8)
 *fill*         0x2000011c        0x4 
 *(.ram.b)
                0x20000120                _end = .
                0x20000120                __end = .
                0x20000120                PROVIDE (end, .)
                0x20000120                PROVIDE (__bss_end__, .)
                0x00000b20                __cy_region_init_ram = LOADADDR (.data)
                0x00000080                __cy_region_init_size_ram = (_edata - ADDR (.data))
                0x00000020                __cy_region_zero_size_ram = (_end - _edata)

.heap           0x20000120       0x80 load address 0x00000ba0
                0x20000120                . = _end
                0x200001a0                . = (. + 0x80)
 *fill*         0x20000120       0x80 
                0x200001a0                __cy_heap_limit = .

.stack          0x20000c00      0x400
                0x20000c00                __cy_stack_limit = .
                0x20001000                . = (. + 0x400)
 *fill*         0x20000c00      0x400 
                0x00000001                ASSERT ((__cy_stack_limit >= __cy_heap_limit), region RAM overflowed with stack)
                0x00000000                cy_checksum_exclude_size = (CY_APPL_LOADABLE == 0x1)?SIZEOF (.cy_checksum_exclude):0x0
                0x00000001                ASSERT ((cy_checksum_exclude_size <= CY_CHECKSUM_EXCLUDE_SIZE), CY_BOOT: Section .cy_checksum_exclude size exceedes specified limit.)
                0x00007fc0                cyloadermeta_start = (cy_project_type_bootloader || cy_project_type_app_for_stack_and_copier)?(LENGTH (rom) - CY_METADATA_SIZE):0xf0000000

.cyloadermeta
 *(.cyloadermeta)
                0x00007fc0                cyloadablemeta_start = cy_project_type_app_for_stack_and_copier?((LENGTH (rom) - CY_FLASH_ROW_SIZE) - CY_METADATA_SIZE):((LENGTH (rom) - (CY_FLASH_ROW_SIZE * (CY_APPL_NUM - 0x1))) - CY_METADATA_SIZE)

.cyloadablemeta
 *(.cyloadablemeta)

.cyflashprotect
                0x90400000       0x20
 *(.cyflashprotect)
 .cyflashprotect
                0x90400000       0x20 .\CortexM0p\ARM_GCC_541\Debug\cymetadata.o
                0x90400000                cy_meta_flashprotect

.cymeta         0x90500000        0xc
 *(.cymeta)
 .cymeta        0x90500000        0xc .\CortexM0p\ARM_GCC_541\Debug\cymetadata.o
                0x90500000                cy_metadata

.cychipprotect  0x90600000        0x1
 *(.cychipprotect)
 .cychipprotect
                0x90600000        0x1 .\CortexM0p\ARM_GCC_541\Debug\cymetadata.o
                0x90600000                cy_meta_chipprotect

.rel.dyn        0x00000ba0        0x0 load address 0x90600004
 .rel.iplt      0x00000ba0        0x0 c:/program files (x86)/cypress/psoc creator/4.2/psoc creator/import/gnu/arm/5.4.1/bin/../lib/gcc/arm-none-eabi/5.4.1/armv6-m/crtbegin.o

.stab
 *(.stab)

.stabstr
 *(.stabstr)

.debug
 *(.debug)

.line
 *(.line)

.debug_srcinfo
 *(.debug_srcinfo)

.debug_sfnames
 *(.debug_sfnames)

.debug_aranges  0x00000000      0x650
 *(.debug_aranges)
 .debug_aranges
                0x00000000       0x28 .\CortexM0p\ARM_GCC_541\Debug\main.o
 .debug_aranges
                0x00000028       0x28 .\CortexM0p\ARM_GCC_541\Debug\cyfitter_cfg.o
 .debug_aranges
                0x00000050       0x18 .\CortexM0p\ARM_GCC_541\Debug\cymetadata.o
 .debug_aranges
                0x00000068       0x48 .\CortexM0p\ARM_GCC_541\Debug\Cm0plusStart.o
 .debug_aranges
                0x000000b0       0x48 .\CortexM0p\ARM_GCC_541\Debug\Walkie Design01.a(Pin_1.o)
 .debug_aranges
                0x000000f8       0x48 .\CortexM0p\ARM_GCC_541\Debug\Walkie Design01.a(Pin_2.o)
 .debug_aranges
                0x00000140       0x48 .\CortexM0p\ARM_GCC_541\Debug\Walkie Design01.a(Pin_3.o)
 .debug_aranges
                0x00000188       0x48 .\CortexM0p\ARM_GCC_541\Debug\Walkie Design01.a(Pin_4.o)
 .debug_aranges
                0x000001d0       0x48 .\CortexM0p\ARM_GCC_541\Debug\Walkie Design01.a(Pin_5.o)
 .debug_aranges
                0x00000218       0x48 .\CortexM0p\ARM_GCC_541\Debug\Walkie Design01.a(Pin_6.o)
 .debug_aranges
                0x00000260       0x48 .\CortexM0p\ARM_GCC_541\Debug\Walkie Design01.a(Pin_7.o)
 .debug_aranges
                0x000002a8       0x48 .\CortexM0p\ARM_GCC_541\Debug\Walkie Design01.a(Pin_8.o)
 .debug_aranges
                0x000002f0       0x48 .\CortexM0p\ARM_GCC_541\Debug\Walkie Design01.a(Pin_14.o)
 .debug_aranges
                0x00000338       0x48 .\CortexM0p\ARM_GCC_541\Debug\Walkie Design01.a(Pin_15.o)
 .debug_aranges
                0x00000380      0x190 .\CortexM0p\ARM_GCC_541\Debug\Walkie Design01.a(CyLib.o)
 .debug_aranges
                0x00000510       0xd8 .\CortexM0p\ARM_GCC_541\Debug\Walkie Design01.a(CyLFClk.o)
 .debug_aranges
                0x000005e8       0x20 .\CortexM0p\ARM_GCC_541\Debug\Walkie Design01.a(CyBootAsmGnu.o)
 .debug_aranges
                0x00000608       0x48 .\CortexM0p\ARM_GCC_541\Debug\Walkie Design01.a(CyFlash.o)

.debug_pubnames
 *(.debug_pubnames)

.debug_info     0x00000000     0x38a8
 *(.debug_info .gnu.linkonce.wi.*)
 .debug_info    0x00000000      0xe21 .\CortexM0p\ARM_GCC_541\Debug\main.o
 .debug_info    0x00000e21       0xfb .\CortexM0p\ARM_GCC_541\Debug\cyfitter_cfg.o
 .debug_info    0x00000f1c       0xf8 .\CortexM0p\ARM_GCC_541\Debug\cymetadata.o
 .debug_info    0x00001014      0x3a5 .\CortexM0p\ARM_GCC_541\Debug\Cm0plusStart.o
 .debug_info    0x000013b9      0x19b .\CortexM0p\ARM_GCC_541\Debug\Walkie Design01.a(Pin_1.o)
 .debug_info    0x00001554      0x19d .\CortexM0p\ARM_GCC_541\Debug\Walkie Design01.a(Pin_2.o)
 .debug_info    0x000016f1      0x19d .\CortexM0p\ARM_GCC_541\Debug\Walkie Design01.a(Pin_3.o)
 .debug_info    0x0000188e      0x19d .\CortexM0p\ARM_GCC_541\Debug\Walkie Design01.a(Pin_4.o)
 .debug_info    0x00001a2b      0x19d .\CortexM0p\ARM_GCC_541\Debug\Walkie Design01.a(Pin_5.o)
 .debug_info    0x00001bc8      0x19d .\CortexM0p\ARM_GCC_541\Debug\Walkie Design01.a(Pin_6.o)
 .debug_info    0x00001d65      0x19d .\CortexM0p\ARM_GCC_541\Debug\Walkie Design01.a(Pin_7.o)
 .debug_info    0x00001f02      0x19d .\CortexM0p\ARM_GCC_541\Debug\Walkie Design01.a(Pin_8.o)
 .debug_info    0x0000209f      0x19d .\CortexM0p\ARM_GCC_541\Debug\Walkie Design01.a(Pin_14.o)
 .debug_info    0x0000223c      0x19b .\CortexM0p\ARM_GCC_541\Debug\Walkie Design01.a(Pin_15.o)
 .debug_info    0x000023d7      0xbcd .\CortexM0p\ARM_GCC_541\Debug\Walkie Design01.a(CyLib.o)
 .debug_info    0x00002fa4      0x444 .\CortexM0p\ARM_GCC_541\Debug\Walkie Design01.a(CyLFClk.o)
 .debug_info    0x000033e8       0xa9 .\CortexM0p\ARM_GCC_541\Debug\Walkie Design01.a(CyBootAsmGnu.o)
 .debug_info    0x00003491      0x417 .\CortexM0p\ARM_GCC_541\Debug\Walkie Design01.a(CyFlash.o)

.debug_abbrev   0x00000000     0x10c8
 *(.debug_abbrev)
 .debug_abbrev  0x00000000       0xc5 .\CortexM0p\ARM_GCC_541\Debug\main.o
 .debug_abbrev  0x000000c5       0xa3 .\CortexM0p\ARM_GCC_541\Debug\cyfitter_cfg.o
 .debug_abbrev  0x00000168       0x5d .\CortexM0p\ARM_GCC_541\Debug\cymetadata.o
 .debug_abbrev  0x000001c5      0x1d0 .\CortexM0p\ARM_GCC_541\Debug\Cm0plusStart.o
 .debug_abbrev  0x00000395       0xc8 .\CortexM0p\ARM_GCC_541\Debug\Walkie Design01.a(Pin_1.o)
 .debug_abbrev  0x0000045d       0xc8 .\CortexM0p\ARM_GCC_541\Debug\Walkie Design01.a(Pin_2.o)
 .debug_abbrev  0x00000525       0xc8 .\CortexM0p\ARM_GCC_541\Debug\Walkie Design01.a(Pin_3.o)
 .debug_abbrev  0x000005ed       0xc8 .\CortexM0p\ARM_GCC_541\Debug\Walkie Design01.a(Pin_4.o)
 .debug_abbrev  0x000006b5       0xc8 .\CortexM0p\ARM_GCC_541\Debug\Walkie Design01.a(Pin_5.o)
 .debug_abbrev  0x0000077d       0xc8 .\CortexM0p\ARM_GCC_541\Debug\Walkie Design01.a(Pin_6.o)
 .debug_abbrev  0x00000845       0xc8 .\CortexM0p\ARM_GCC_541\Debug\Walkie Design01.a(Pin_7.o)
 .debug_abbrev  0x0000090d       0xc8 .\CortexM0p\ARM_GCC_541\Debug\Walkie Design01.a(Pin_8.o)
 .debug_abbrev  0x000009d5       0xc8 .\CortexM0p\ARM_GCC_541\Debug\Walkie Design01.a(Pin_14.o)
 .debug_abbrev  0x00000a9d       0xc8 .\CortexM0p\ARM_GCC_541\Debug\Walkie Design01.a(Pin_15.o)
 .debug_abbrev  0x00000b65      0x202 .\CortexM0p\ARM_GCC_541\Debug\Walkie Design01.a(CyLib.o)
 .debug_abbrev  0x00000d67      0x1af .\CortexM0p\ARM_GCC_541\Debug\Walkie Design01.a(CyLFClk.o)
 .debug_abbrev  0x00000f16       0x14 .\CortexM0p\ARM_GCC_541\Debug\Walkie Design01.a(CyBootAsmGnu.o)
 .debug_abbrev  0x00000f2a      0x19e .\CortexM0p\ARM_GCC_541\Debug\Walkie Design01.a(CyFlash.o)

.debug_line     0x00000000     0x16cd
 *(.debug_line)
 .debug_line    0x00000000      0x1bb .\CortexM0p\ARM_GCC_541\Debug\main.o
 .debug_line    0x000001bb       0x7f .\CortexM0p\ARM_GCC_541\Debug\cyfitter_cfg.o
 .debug_line    0x0000023a      0x141 .\CortexM0p\ARM_GCC_541\Debug\cymetadata.o
 .debug_line    0x0000037b      0x247 .\CortexM0p\ARM_GCC_541\Debug\Cm0plusStart.o
 .debug_line    0x000005c2       0xbc .\CortexM0p\ARM_GCC_541\Debug\Walkie Design01.a(Pin_1.o)
 .debug_line    0x0000067e       0xbd .\CortexM0p\ARM_GCC_541\Debug\Walkie Design01.a(Pin_2.o)
 .debug_line    0x0000073b       0xbd .\CortexM0p\ARM_GCC_541\Debug\Walkie Design01.a(Pin_3.o)
 .debug_line    0x000007f8       0xbd .\CortexM0p\ARM_GCC_541\Debug\Walkie Design01.a(Pin_4.o)
 .debug_line    0x000008b5       0xbd .\CortexM0p\ARM_GCC_541\Debug\Walkie Design01.a(Pin_5.o)
 .debug_line    0x00000972       0xbd .\CortexM0p\ARM_GCC_541\Debug\Walkie Design01.a(Pin_6.o)
 .debug_line    0x00000a2f       0xbd .\CortexM0p\ARM_GCC_541\Debug\Walkie Design01.a(Pin_7.o)
 .debug_line    0x00000aec       0xbd .\CortexM0p\ARM_GCC_541\Debug\Walkie Design01.a(Pin_8.o)
 .debug_line    0x00000ba9       0xbe .\CortexM0p\ARM_GCC_541\Debug\Walkie Design01.a(Pin_14.o)
 .debug_line    0x00000c67       0xbd .\CortexM0p\ARM_GCC_541\Debug\Walkie Design01.a(Pin_15.o)
 .debug_line    0x00000d24      0x4dc .\CortexM0p\ARM_GCC_541\Debug\Walkie Design01.a(CyLib.o)
 .debug_line    0x00001200      0x284 .\CortexM0p\ARM_GCC_541\Debug\Walkie Design01.a(CyLFClk.o)
 .debug_line    0x00001484       0x68 .\CortexM0p\ARM_GCC_541\Debug\Walkie Design01.a(CyBootAsmGnu.o)
 .debug_line    0x000014ec      0x1e1 .\CortexM0p\ARM_GCC_541\Debug\Walkie Design01.a(CyFlash.o)

.debug_frame    0x00000000      0xd28
 *(.debug_frame)
 .debug_frame   0x00000000       0x4c .\CortexM0p\ARM_GCC_541\Debug\main.o
 .debug_frame   0x0000004c       0x48 .\CortexM0p\ARM_GCC_541\Debug\cyfitter_cfg.o
 .debug_frame   0x00000094       0xbc .\CortexM0p\ARM_GCC_541\Debug\Cm0plusStart.o
 .debug_frame   0x00000150       0x70 .\CortexM0p\ARM_GCC_541\Debug\Walkie Design01.a(Pin_1.o)
 .debug_frame   0x000001c0       0x70 .\CortexM0p\ARM_GCC_541\Debug\Walkie Design01.a(Pin_2.o)
 .debug_frame   0x00000230       0x70 .\CortexM0p\ARM_GCC_541\Debug\Walkie Design01.a(Pin_3.o)
 .debug_frame   0x000002a0       0x70 .\CortexM0p\ARM_GCC_541\Debug\Walkie Design01.a(Pin_4.o)
 .debug_frame   0x00000310       0x70 .\CortexM0p\ARM_GCC_541\Debug\Walkie Design01.a(Pin_5.o)
 .debug_frame   0x00000380       0x70 .\CortexM0p\ARM_GCC_541\Debug\Walkie Design01.a(Pin_6.o)
 .debug_frame   0x000003f0       0x70 .\CortexM0p\ARM_GCC_541\Debug\Walkie Design01.a(Pin_7.o)
 .debug_frame   0x00000460       0x70 .\CortexM0p\ARM_GCC_541\Debug\Walkie Design01.a(Pin_8.o)
 .debug_frame   0x000004d0       0x70 .\CortexM0p\ARM_GCC_541\Debug\Walkie Design01.a(Pin_14.o)
 .debug_frame   0x00000540       0x70 .\CortexM0p\ARM_GCC_541\Debug\Walkie Design01.a(Pin_15.o)
 .debug_frame   0x000005b0      0x418 .\CortexM0p\ARM_GCC_541\Debug\Walkie Design01.a(CyLib.o)
 .debug_frame   0x000009c8      0x1dc .\CortexM0p\ARM_GCC_541\Debug\Walkie Design01.a(CyLFClk.o)
 .debug_frame   0x00000ba4       0xa8 .\CortexM0p\ARM_GCC_541\Debug\Walkie Design01.a(CyFlash.o)
 .debug_frame   0x00000c4c       0x20 c:/program files (x86)/cypress/psoc creator/4.2/psoc creator/import/gnu/arm/5.4.1/bin/../lib/gcc/arm-none-eabi/5.4.1/armv6-m\libgcc.a(_udivsi3.o)
 .debug_frame   0x00000c6c       0x20 c:/program files (x86)/cypress/psoc creator/4.2/psoc creator/import/gnu/arm/5.4.1/bin/../lib/gcc/arm-none-eabi/5.4.1/../../../../arm-none-eabi/lib/armv6-m\libg_nano.a(lib_a-errno.o)
 .debug_frame   0x00000c8c       0x28 c:/program files (x86)/cypress/psoc creator/4.2/psoc creator/import/gnu/arm/5.4.1/bin/../lib/gcc/arm-none-eabi/5.4.1/../../../../arm-none-eabi/lib/armv6-m\libg_nano.a(lib_a-exit.o)
 .debug_frame   0x00000cb4       0x2c c:/program files (x86)/cypress/psoc creator/4.2/psoc creator/import/gnu/arm/5.4.1/bin/../lib/gcc/arm-none-eabi/5.4.1/../../../../arm-none-eabi/lib/armv6-m\libg_nano.a(lib_a-init.o)
 .debug_frame   0x00000ce0       0x28 c:/program files (x86)/cypress/psoc creator/4.2/psoc creator/import/gnu/arm/5.4.1/bin/../lib/gcc/arm-none-eabi/5.4.1/../../../../arm-none-eabi/lib/armv6-m\libg_nano.a(lib_a-memcpy-stub.o)
 .debug_frame   0x00000d08       0x20 c:/program files (x86)/cypress/psoc creator/4.2/psoc creator/import/gnu/arm/5.4.1/bin/../lib/gcc/arm-none-eabi/5.4.1/../../../../arm-none-eabi/lib/armv6-m\libg_nano.a(lib_a-memset.o)

.debug_str      0x00000000     0x1283
 *(.debug_str)
 .debug_str     0x00000000      0x231 .\CortexM0p\ARM_GCC_541\Debug\main.o
                                0x271 (size before relaxing)
 .debug_str     0x00000231       0x60 .\CortexM0p\ARM_GCC_541\Debug\cyfitter_cfg.o
                                0x1f8 (size before relaxing)
 .debug_str     0x00000291       0x63 .\CortexM0p\ARM_GCC_541\Debug\cymetadata.o
                                0x1e5 (size before relaxing)
 .debug_str     0x000002f4      0x15b .\CortexM0p\ARM_GCC_541\Debug\Cm0plusStart.o
                                0x32c (size before relaxing)
 .debug_str     0x0000044f       0xa8 .\CortexM0p\ARM_GCC_541\Debug\Walkie Design01.a(Pin_1.o)
                                0x253 (size before relaxing)
 .debug_str     0x000004f7       0x7b .\CortexM0p\ARM_GCC_541\Debug\Walkie Design01.a(Pin_2.o)
                                0x253 (size before relaxing)
 .debug_str     0x00000572       0x7b .\CortexM0p\ARM_GCC_541\Debug\Walkie Design01.a(Pin_3.o)
                                0x253 (size before relaxing)
 .debug_str     0x000005ed       0x7b .\CortexM0p\ARM_GCC_541\Debug\Walkie Design01.a(Pin_4.o)
                                0x253 (size before relaxing)
 .debug_str     0x00000668       0x7b .\CortexM0p\ARM_GCC_541\Debug\Walkie Design01.a(Pin_5.o)
                                0x253 (size before relaxing)
 .debug_str     0x000006e3       0x7b .\CortexM0p\ARM_GCC_541\Debug\Walkie Design01.a(Pin_6.o)
                                0x253 (size before relaxing)
 .debug_str     0x0000075e       0x7b .\CortexM0p\ARM_GCC_541\Debug\Walkie Design01.a(Pin_7.o)
                                0x253 (size before relaxing)
 .debug_str     0x000007d9       0x7b .\CortexM0p\ARM_GCC_541\Debug\Walkie Design01.a(Pin_8.o)
                                0x253 (size before relaxing)
 .debug_str     0x00000854       0x81 .\CortexM0p\ARM_GCC_541\Debug\Walkie Design01.a(Pin_14.o)
                                0x25a (size before relaxing)
 .debug_str     0x000008d5       0x81 .\CortexM0p\ARM_GCC_541\Debug\Walkie Design01.a(Pin_15.o)
                                0x25a (size before relaxing)
 .debug_str     0x00000956      0x530 .\CortexM0p\ARM_GCC_541\Debug\Walkie Design01.a(CyLib.o)
                                0x728 (size before relaxing)
 .debug_str     0x00000e86      0x2d9 .\CortexM0p\ARM_GCC_541\Debug\Walkie Design01.a(CyLFClk.o)
                                0x4d7 (size before relaxing)
 .debug_str     0x0000115f      0x124 .\CortexM0p\ARM_GCC_541\Debug\Walkie Design01.a(CyFlash.o)
                                0x33f (size before relaxing)

.debug_loc      0x00000000     0x128d
 *(.debug_loc)
 .debug_loc     0x00000000       0x42 .\CortexM0p\ARM_GCC_541\Debug\main.o
 .debug_loc     0x00000042      0x14f .\CortexM0p\ARM_GCC_541\Debug\Cm0plusStart.o
 .debug_loc     0x00000191       0x81 .\CortexM0p\ARM_GCC_541\Debug\Walkie Design01.a(Pin_1.o)
 .debug_loc     0x00000212       0xa2 .\CortexM0p\ARM_GCC_541\Debug\Walkie Design01.a(Pin_2.o)
 .debug_loc     0x000002b4       0xa2 .\CortexM0p\ARM_GCC_541\Debug\Walkie Design01.a(Pin_3.o)
 .debug_loc     0x00000356       0xa2 .\CortexM0p\ARM_GCC_541\Debug\Walkie Design01.a(Pin_4.o)
 .debug_loc     0x000003f8       0xa2 .\CortexM0p\ARM_GCC_541\Debug\Walkie Design01.a(Pin_5.o)
 .debug_loc     0x0000049a       0xa2 .\CortexM0p\ARM_GCC_541\Debug\Walkie Design01.a(Pin_6.o)
 .debug_loc     0x0000053c       0xa2 .\CortexM0p\ARM_GCC_541\Debug\Walkie Design01.a(Pin_7.o)
 .debug_loc     0x000005de       0xa2 .\CortexM0p\ARM_GCC_541\Debug\Walkie Design01.a(Pin_8.o)
 .debug_loc     0x00000680       0xa2 .\CortexM0p\ARM_GCC_541\Debug\Walkie Design01.a(Pin_14.o)
 .debug_loc     0x00000722       0x81 .\CortexM0p\ARM_GCC_541\Debug\Walkie Design01.a(Pin_15.o)
 .debug_loc     0x000007a3      0x5d9 .\CortexM0p\ARM_GCC_541\Debug\Walkie Design01.a(CyLib.o)
 .debug_loc     0x00000d7c      0x354 .\CortexM0p\ARM_GCC_541\Debug\Walkie Design01.a(CyLFClk.o)
 .debug_loc     0x000010d0      0x1bd .\CortexM0p\ARM_GCC_541\Debug\Walkie Design01.a(CyFlash.o)

.debug_macinfo
 *(.debug_macinfo)

.debug_ranges   0x00000000      0x518
 *(.debug_ranges)
 .debug_ranges  0x00000000       0x18 .\CortexM0p\ARM_GCC_541\Debug\main.o
 .debug_ranges  0x00000018       0x18 .\CortexM0p\ARM_GCC_541\Debug\cyfitter_cfg.o
 .debug_ranges  0x00000030       0x38 .\CortexM0p\ARM_GCC_541\Debug\Cm0plusStart.o
 .debug_ranges  0x00000068       0x38 .\CortexM0p\ARM_GCC_541\Debug\Walkie Design01.a(Pin_1.o)
 .debug_ranges  0x000000a0       0x38 .\CortexM0p\ARM_GCC_541\Debug\Walkie Design01.a(Pin_2.o)
 .debug_ranges  0x000000d8       0x38 .\CortexM0p\ARM_GCC_541\Debug\Walkie Design01.a(Pin_3.o)
 .debug_ranges  0x00000110       0x38 .\CortexM0p\ARM_GCC_541\Debug\Walkie Design01.a(Pin_4.o)
 .debug_ranges  0x00000148       0x38 .\CortexM0p\ARM_GCC_541\Debug\Walkie Design01.a(Pin_5.o)
 .debug_ranges  0x00000180       0x38 .\CortexM0p\ARM_GCC_541\Debug\Walkie Design01.a(Pin_6.o)
 .debug_ranges  0x000001b8       0x38 .\CortexM0p\ARM_GCC_541\Debug\Walkie Design01.a(Pin_7.o)
 .debug_ranges  0x000001f0       0x38 .\CortexM0p\ARM_GCC_541\Debug\Walkie Design01.a(Pin_8.o)
 .debug_ranges  0x00000228       0x38 .\CortexM0p\ARM_GCC_541\Debug\Walkie Design01.a(Pin_14.o)
 .debug_ranges  0x00000260       0x38 .\CortexM0p\ARM_GCC_541\Debug\Walkie Design01.a(Pin_15.o)
 .debug_ranges  0x00000298      0x180 .\CortexM0p\ARM_GCC_541\Debug\Walkie Design01.a(CyLib.o)
 .debug_ranges  0x00000418       0xc8 .\CortexM0p\ARM_GCC_541\Debug\Walkie Design01.a(CyLFClk.o)
 .debug_ranges  0x000004e0       0x38 .\CortexM0p\ARM_GCC_541\Debug\Walkie Design01.a(CyFlash.o)

.comment        0x00000000       0x6e
 .comment       0x00000000       0x6e .\CortexM0p\ARM_GCC_541\Debug\main.o
                                 0x6f (size before relaxing)
 .comment       0x0000006e       0x6f .\CortexM0p\ARM_GCC_541\Debug\cyfitter_cfg.o
 .comment       0x0000006e       0x6f .\CortexM0p\ARM_GCC_541\Debug\cymetadata.o
 .comment       0x0000006e       0x6f .\CortexM0p\ARM_GCC_541\Debug\Cm0plusStart.o
 .comment       0x0000006e       0x6f .\CortexM0p\ARM_GCC_541\Debug\Walkie Design01.a(Pin_1.o)
 .comment       0x0000006e       0x6f .\CortexM0p\ARM_GCC_541\Debug\Walkie Design01.a(Pin_2.o)
 .comment       0x0000006e       0x6f .\CortexM0p\ARM_GCC_541\Debug\Walkie Design01.a(Pin_3.o)
 .comment       0x0000006e       0x6f .\CortexM0p\ARM_GCC_541\Debug\Walkie Design01.a(Pin_4.o)
 .comment       0x0000006e       0x6f .\CortexM0p\ARM_GCC_541\Debug\Walkie Design01.a(Pin_5.o)
 .comment       0x0000006e       0x6f .\CortexM0p\ARM_GCC_541\Debug\Walkie Design01.a(Pin_6.o)
 .comment       0x0000006e       0x6f .\CortexM0p\ARM_GCC_541\Debug\Walkie Design01.a(Pin_7.o)
 .comment       0x0000006e       0x6f .\CortexM0p\ARM_GCC_541\Debug\Walkie Design01.a(Pin_8.o)
 .comment       0x0000006e       0x6f .\CortexM0p\ARM_GCC_541\Debug\Walkie Design01.a(Pin_14.o)
 .comment       0x0000006e       0x6f .\CortexM0p\ARM_GCC_541\Debug\Walkie Design01.a(Pin_15.o)
 .comment       0x0000006e       0x6f .\CortexM0p\ARM_GCC_541\Debug\Walkie Design01.a(CyLib.o)
 .comment       0x0000006e       0x6f .\CortexM0p\ARM_GCC_541\Debug\Walkie Design01.a(CyLFClk.o)
 .comment       0x0000006e       0x6f .\CortexM0p\ARM_GCC_541\Debug\Walkie Design01.a(CyFlash.o)

.debug_weaknames
 *(.debug_weaknames)

.debug_funcnames
 *(.debug_funcnames)

.debug_typenames
 *(.debug_typenames)

.debug_varnames
 *(.debug_varnames)

.note.gnu.arm.ident
 *(.note.gnu.arm.ident)

.ARM.attributes
                0x00000000       0x28
 *(.ARM.attributes)
 .ARM.attributes
                0x00000000       0x1e c:/program files (x86)/cypress/psoc creator/4.2/psoc creator/import/gnu/arm/5.4.1/bin/../lib/gcc/arm-none-eabi/5.4.1/armv6-m/crti.o
 .ARM.attributes
                0x0000001e       0x2c c:/program files (x86)/cypress/psoc creator/4.2/psoc creator/import/gnu/arm/5.4.1/bin/../lib/gcc/arm-none-eabi/5.4.1/armv6-m/crtbegin.o
 .ARM.attributes
                0x0000004a       0x1b c:/program files (x86)/cypress/psoc creator/4.2/psoc creator/import/gnu/arm/5.4.1/bin/../lib/gcc/arm-none-eabi/5.4.1/../../../../arm-none-eabi/lib/armv6-m/crt0.o
 .ARM.attributes
                0x00000065       0x32 .\CortexM0p\ARM_GCC_541\Debug\main.o
 .ARM.attributes
                0x00000097       0x32 .\CortexM0p\ARM_GCC_541\Debug\cyfitter_cfg.o
 .ARM.attributes
                0x000000c9       0x32 .\CortexM0p\ARM_GCC_541\Debug\cymetadata.o
 .ARM.attributes
                0x000000fb       0x32 .\CortexM0p\ARM_GCC_541\Debug\Cm0plusStart.o
 .ARM.attributes
                0x0000012d       0x32 .\CortexM0p\ARM_GCC_541\Debug\Walkie Design01.a(Pin_1.o)
 .ARM.attributes
                0x0000015f       0x32 .\CortexM0p\ARM_GCC_541\Debug\Walkie Design01.a(Pin_2.o)
 .ARM.attributes
                0x00000191       0x32 .\CortexM0p\ARM_GCC_541\Debug\Walkie Design01.a(Pin_3.o)
 .ARM.attributes
                0x000001c3       0x32 .\CortexM0p\ARM_GCC_541\Debug\Walkie Design01.a(Pin_4.o)
 .ARM.attributes
                0x000001f5       0x32 .\CortexM0p\ARM_GCC_541\Debug\Walkie Design01.a(Pin_5.o)
 .ARM.attributes
                0x00000227       0x32 .\CortexM0p\ARM_GCC_541\Debug\Walkie Design01.a(Pin_6.o)
 .ARM.attributes
                0x00000259       0x32 .\CortexM0p\ARM_GCC_541\Debug\Walkie Design01.a(Pin_7.o)
 .ARM.attributes
                0x0000028b       0x32 .\CortexM0p\ARM_GCC_541\Debug\Walkie Design01.a(Pin_8.o)
 .ARM.attributes
                0x000002bd       0x32 .\CortexM0p\ARM_GCC_541\Debug\Walkie Design01.a(Pin_14.o)
 .ARM.attributes
                0x000002ef       0x32 .\CortexM0p\ARM_GCC_541\Debug\Walkie Design01.a(Pin_15.o)
 .ARM.attributes
                0x00000321       0x32 .\CortexM0p\ARM_GCC_541\Debug\Walkie Design01.a(CyLib.o)
 .ARM.attributes
                0x00000353       0x32 .\CortexM0p\ARM_GCC_541\Debug\Walkie Design01.a(CyLFClk.o)
 .ARM.attributes
                0x00000385       0x22 .\CortexM0p\ARM_GCC_541\Debug\Walkie Design01.a(CyBootAsmGnu.o)
 .ARM.attributes
                0x000003a7       0x32 .\CortexM0p\ARM_GCC_541\Debug\Walkie Design01.a(CyFlash.o)
 .ARM.attributes
                0x000003d9       0x1e c:/program files (x86)/cypress/psoc creator/4.2/psoc creator/import/gnu/arm/5.4.1/bin/../lib/gcc/arm-none-eabi/5.4.1/armv6-m\libgcc.a(_udivsi3.o)
 .ARM.attributes
                0x000003f7       0x1e c:/program files (x86)/cypress/psoc creator/4.2/psoc creator/import/gnu/arm/5.4.1/bin/../lib/gcc/arm-none-eabi/5.4.1/armv6-m\libgcc.a(_dvmd_tls.o)
 .ARM.attributes
                0x00000415       0x2c c:/program files (x86)/cypress/psoc creator/4.2/psoc creator/import/gnu/arm/5.4.1/bin/../lib/gcc/arm-none-eabi/5.4.1/../../../../arm-none-eabi/lib/armv6-m\libg_nano.a(lib_a-errno.o)
 .ARM.attributes
                0x00000441       0x2c c:/program files (x86)/cypress/psoc creator/4.2/psoc creator/import/gnu/arm/5.4.1/bin/../lib/gcc/arm-none-eabi/5.4.1/../../../../arm-none-eabi/lib/armv6-m\libg_nano.a(lib_a-exit.o)
 .ARM.attributes
                0x0000046d       0x2c c:/program files (x86)/cypress/psoc creator/4.2/psoc creator/import/gnu/arm/5.4.1/bin/../lib/gcc/arm-none-eabi/5.4.1/../../../../arm-none-eabi/lib/armv6-m\libg_nano.a(lib_a-impure.o)
 .ARM.attributes
                0x00000499       0x2c c:/program files (x86)/cypress/psoc creator/4.2/psoc creator/import/gnu/arm/5.4.1/bin/../lib/gcc/arm-none-eabi/5.4.1/../../../../arm-none-eabi/lib/armv6-m\libg_nano.a(lib_a-init.o)
 .ARM.attributes
                0x000004c5       0x2c c:/program files (x86)/cypress/psoc creator/4.2/psoc creator/import/gnu/arm/5.4.1/bin/../lib/gcc/arm-none-eabi/5.4.1/../../../../arm-none-eabi/lib/armv6-m\libg_nano.a(lib_a-memcpy-stub.o)
 .ARM.attributes
                0x000004f1       0x2c c:/program files (x86)/cypress/psoc creator/4.2/psoc creator/import/gnu/arm/5.4.1/bin/../lib/gcc/arm-none-eabi/5.4.1/../../../../arm-none-eabi/lib/armv6-m\libg_nano.a(lib_a-memset.o)
 .ARM.attributes
                0x0000051d       0x2c c:/program files (x86)/cypress/psoc creator/4.2/psoc creator/import/gnu/arm/5.4.1/bin/../lib/gcc/arm-none-eabi/5.4.1/armv6-m/crtend.o
 .ARM.attributes
                0x00000549       0x1e c:/program files (x86)/cypress/psoc creator/4.2/psoc creator/import/gnu/arm/5.4.1/bin/../lib/gcc/arm-none-eabi/5.4.1/armv6-m/crtn.o

/DISCARD/
 *(.note.GNU-stack)
OUTPUT(C:\Users\ADEFIRANYE FOLASHADE\Documents\PSoC Creator\Walkie Talkie02\Walkie Design01.cydsn\CortexM0p\ARM_GCC_541\Debug\Walkie Design01.elf elf32-littlearm)
